:020000040800F2
:1000000030C900207504000849E6000825A9000849
:1000100091D5000883150008A91701080000000009
:10002000000000000000000000000000B503000810
:10003000B92D0008000000001104000819FC000898
:100040009304000893040008930400089304000834
:100050009304000893040008930400089304000824
:10006000930400089304000893040008E5260008A0
:10007000F526000805270008152700082527000891
:10008000352700084527000893040008412F000881
:10009000512F0008930400089304000893040008FB
:1000A00093040008930400089304000893040008D4
:1000B00021FE00089304000893040008930400083C
:1000C00093040008930400089304000893040008B4
:1000D000D1F900086517010875170108851701088F
:1000E0009304000893040008000000009304000833
:1000F000930400089304000893040008552700089F
:100100009304000893040008930400089304000873
:100110009304000859090108930400089304000897
:10012000652700087527000885270008952700081F
:10013000A52700089304000893040008930400080E
:1001400000000000000000000000000000000000AF
:100150009304000893040008930400089304000823
:100160009304000893040008930400089304000813
:1001700093040008930400089304000800000000A2
:100180009304000893040008850C010893040008F8
:1001900093040008930400089304000893040008E3
:1001A0009304000893040008930400080000000072
:1001B00093040008930400089304000893040008C3
:1001C00093040008930400080000000000000000F1
:1001D0000000000000000000930400080000000080
:1001E000000000000000000000000000000000000F
:1001F00000000000000000009304000893040008C1
:100200009304000893040008000000009304000811
:100210009304000893040008930400089304000862
:100220009304000800000000930400080000000090
:1002300093040008930400080000000093040008E1
:100240009304000893040008930400089304000832
:100250009304000893040008930400089304000822
:100260009304000893040008930400089304000812
:1002700093040008930400089304000800000000A1
:1002800093040008930400089304000893040008F2
:100290000000000093040008930400080000000020
:1002A0000000000093040008930400089304000871
:1002B000551701089304000893040008612F0008F3
:1002C00093040008930400089304000800F002F867
:1002D00000F060F80AA090E8000C82448344AAF180
:1002E0000107DA4501D100F055F8AFF2090EBAE87E
:1002F0000F0013F0010F18BFFB1A43F0010318475A
:1003000054BF010084BF01000A444FF0000C10F8F4
:10031000013B13F0070408BF10F8014B1D1108BF83
:1003200010F8015B641E05D010F8016B641E01F823
:10033000016BF9D113F0080F1EBF10F8014BAD1C73
:100340000C1B09D16D1E58BF01F801CBFAD505E091
:1003500014F8016B01F8016B6D1EF9D59142D6D3EB
:10036000704700000023002400250026103A28BF13
:1003700078C1FBD8520728BF30C148BF0B60704717
:100380001FB51AF0F5F89DE8030000F051FA1FBD03
:1003900010B510BD00F0DEFA1146FFF7F1FF18F0BE
:1003A00087FC00F0FCFA03B4FFF7F2FF03BC00F097
:1003B0002DFB00002C4B19680868B0E8F04F80F363
:1003C0000988BFF36F8F4FF0000080F311887047EA
:1003D0000000000008480068006880F308884FF0BB
:1003E000000080F3148862B661B6BFF34F8FBFF38D
:1003F0006F8F00DF00BF00BF08ED00E0DFF80C00EA
:10040000016841F470010160704700BF88ED00E0B1
:10041000EFF30980BFF36F8F134B1A681EF0100FB4
:1004200008BF20ED108A20E9F04F106009B44FF0AA
:10043000500080F31188BFF34F8FBFF36F8F19F017
:10044000B5FD4FF0000080F3118809BC19680868F9
:10045000B0E8F04F1EF0100F08BFB0EC108A80F328
:100460000988BFF36F8F7047F8030020EFF3058012
:10047000704700000A4880470A4880470A480047FA
:10048000FEE7FEE7FEE7FEE7FEE7FEE7FEE7FEE744
:10049000FEE7FEE705480649064A074B704700009D
:1004A0001D2F000815FD0008CD020008306900204E
:1004B00030C90020308900203089002070B5064600
:1004C00000F09AF9056806F10B0020F00704B44229
:1004D0009CBF002070BD2B466A68BAB11068A0426C
:1004E00010D304F1080188423CBF5068586007D31C
:1004F0005168101941601168091B0160586014604F
:10050000101D70BD13465268002AE7D121462846C7
:1005100000F07AF90028DED170BD53EA020C00F039
:1005200069802DE9F04B4FF00006002B1FBFB3FA96
:1005300083F503FA05F424FA05F65E4012BF16436C
:10054000B2FA82F502FA05F4C5F120051EBF22FABF
:1005500005FC44EA0C04203556EA044C4FEA1444E6
:1005600018BF641C4FF000084FF00009904271EB77
:10057000030C39D3002919BFB1FA81F701FA07F644
:10058000B0FA80F700FA07F6C7F120071EBF20FA7D
:1005900007FC46EA0C062037B6FBF4FCA7EB050780
:1005A000103F07F01F0BCBF120060CFA0BFB2CFAC7
:1005B00006F644BFB3460026202FA4BF5E464FF088
:1005C000000B5BEA060C08BF4FF0010B19EB0B099F
:1005D000ABFB027C48EB0608C01B06FB02CC0BFB06
:1005E00003CC71EB0C01C1E70B460246414648467D
:1005F000BDE8F08B13B54FF000004FF00001AFF3F2
:100600000080BDE81C40704740EA010310B59B071D
:100610000FD1042A0DD310C808C9121F9C42F8D06C
:1006200020BA19BA884201D9012010BD4FF0FF301D
:1006300010BD1AB1D30703D0521C07E0002010BD33
:1006400010F8013B11F8014B1B1B07D110F8013BBF
:1006500011F8014B1B1B01D1921EF1D1184610BDA0
:10066000032A40F2308010F0030C00F0158011F8DE
:10067000013BBCF1020F624498BF11F801CB00F8B6
:10068000013B38BF11F8013BA2F1040298BF00F80A
:1006900001CB38BF00F8013B11F0030300F02580C7
:1006A000083AC0F0088051F8043B083A51F804CBEE
:1006B000A0E80810F5E7121D5CBF51F8043B40F8B4
:1006C000043BAFF30080D20724BF11F8013B11F8BF
:1006D00001CB48BF11F8012B24BF00F8013B00F803
:1006E00001CB48BF00F8012B704710B5203AC0F08D
:1006F0000B80B1E81850203AA0E81850B1E8185023
:10070000A0E81850BFF4F5AF5FEA027C24BFB1E85F
:100710001850A0E8185044BF18C918C0BDE81040D0
:100720005FEA827C24BF51F8043B40F8043B08BFD9
:100730007047D20728BF31F8023B48BF11F8012BA0
:1007400028BF20F8023B48BF00F8012B704702F099
:10075000FF0343EA032242EA024200F002B84FF0EC
:1007600000020429C0F0128010F0030C00F01B807E
:10077000CCF1040CBCF1020F18BF00F8012BA8BF8C
:1007800020F8022BA1EB0C0100F00DB85FEAC17C50
:1007900024BF00F8012B00F8012B48BF00F8012B03
:1007A00070474FF0000200B5134694469646203934
:1007B00022BFA0E80C50A0E80C50B1F12001BFF41A
:1007C000F7AF090728BFA0E80C5048BF0CC05DF880
:1007D00004EB890028BF40F8042B08BF704748BFCE
:1007E00020F8022B11F0804F18BF00F8012B704742
:1007F000704770477047000000487047D468002079
:10080000704770477047704738B504460A46002065
:100810006946AFF30080002808BF38BD0246009942
:10082000204600F075F8012038BD012000F08AB89C
:10083000F8B5AFF30080054600200C46102000BF3D
:100840000646A819A0420DD9324669460020AFF3EA
:100850000080070008BF00F075F80098A04218BF9C
:100860000546C419FFF7C8FF05600746F01D20F0D4
:1008700007004619284600F00AF8B44208BFF8BD40
:10088000A21B31463868BDE8F84000F041B80021AD
:100890000160C0E9011070471020704770B5044630
:1008A000051FFFF7A9FF0068002C14BF446870BD46
:1008B000002C18BFAC423CBF20466468F8D30168E6
:1008C0000A18AA4218BF456003D12A680546114498
:1008D000016028684119A1421CBF6C6070BD61684D
:1008E000696021680844286070BD10B500F00CF8FC
:1008F000006810BD10B5044600F006F8046010BD95
:1009000000487047CC68002000487047CC68002041
:10091000034640688C46002818BF88423CBF034607
:100920004068F8D318681844884207D00CF10300D7
:1009300020F00700001D411A521A0146081D0A60E6
:10094000FFF7ACBF10B500F039F8BDE8104000F07B
:100950002FB870477546FFF7D3FFAE4605006946CE
:10096000534620F00700854618B020B5FFF792FDEA
:10097000BDE820404FF000064FF000074FF00008A0
:100980004FF0000B21F00701AC46ACE8C009ACE821
:10099000C009ACE8C009ACE8C0098D46704710B585
:1009A0000446AFF300802046BDE81040FFF7FBBCD3
:1009B000002801D000F02AB87047000010B50128C7
:1009C00005D0002103A000F027F8012010BD09A1E7
:1009D000F8E7000053494752544D454D3A204F75B2
:1009E00074206F662068656170206D656D6F727927
:1009F000000000003A2048656170206D656D6F72DF
:100A00007920636F727275707465640001491820F3
:100A1000ABBEFEE72600020070B505460C460A2074
:100A200000E06D1C00F011F835B128780028F8D1ED
:100A300002E0641C00F009F814B120780028F8D115
:100A4000BDE870400A20AFF3008008B569468DF814
:100A500000000320ABBE08BD9FED201AB5EE002AB2
:100A600000EE012A9FED1E1ABDEEC20AB5EEC02AA5
:100A7000F1EE10FA10EE100AB8BF013800EE100ABD
:100A80000020B8EEC00A32EE400A9FED162A20EE92
:100A9000010ABCEEC01A11EE101A30EE021AB0EBC9
:100AA000512F18BF002102EE101A4BF6502000FE05
:100AB000010AC0F60100B8EE422A00EB810090ED79
:100AC000011A30EE420AB7EE002A32EE402A20EE3A
:100AD000010A90ED001A02EE010A704783F9223EE6
:100AE00000000044000000C4B0B503880D88AB428C
:100AF00056D145884C88A54252D11488A3424FD183
:100B00005488A5424CD105FB03FC43680025496885
:100B1000B5EB9C0F506831D04FEA9C02524200BFA7
:100B200093ED000A91ED001A30EE010A03F1100E68
:100B300001F1100400F1100580ED000A013293ED7F
:100B4000010A91ED011A30EE010A80ED010A93EDE0
:100B5000020A91ED021A30EE010A80ED020A93EDCD
:100B6000030A91ED031A30EE010A7346214680ED27
:100B7000030A2846D4D12146284673461CF00302B6
:100B80000CD05242B3EC010AB1EC011A30EE010A6A
:100B9000051D013280ED000A2846F3D1002000E057
:100BA000FD2040B2B0BD018042804360704700002C
:100BB0002DE9F04F8BB0B0F800B0B0F802E0F3458B
:100BC00040F051810B88FD229B4540F04D814F88BC
:100BD000BB4240F04981BBF1000F436800F029811E
:100BE0006FF003004C6800EB8B08CDF81CE0002789
:100BF00000934FF07E5906945E462046BBEB0600FC
:100C000009D0B9002046FFF7CCFD00200130874213
:100C100004F10404FAD104F1040AC4F80090751E2A
:100C200010D0A8EB87015046FFF7BBFD01205446CA
:100C30000130864204F10404FAD1002D07F10107C6
:100C40002E46DBD1BBF1000F009BDDF81CE000F06D
:100C5000F0800420CDF814B000EB8E00019018460F
:100C6000ABF1010603EB8E044FEA8E021D1DCEF19F
:100C70000001002308919FED800A7746814600BF5E
:100C80005B4580F0F58003FB0EF0B0EE403A09EBD7
:100C900080010A9191ED001A0699B0EE414A01EBEC
:100CA000800009902146304606E000BF91ED004AE1
:100CB0000138B0EE423A1144B5EEC04AF1EE10FAF6
:100CC0000ADDB4EEC34AB0EE442AF1EE10FAD8BF02
:100CD000B0EE432A09E000BFB1EE442AB4EEC23AB6
:100CE000F1EE10FA01DBB0EE432A0028DED1B5EEBA
:100CF000402AF1EE10FA00F0BB80B0EEC13AB4EE3B
:100D0000423AF1EE10FA1CBFD84310EB0B0004D0AE
:100D1000002000BF01308642FCD1B5EE401AF1EE52
:100D200010FA00F0A580CDE90346AEEB030C0A995A
:100D3000BCF1010F4FF07E5008600AD00120294617
:100D400091ED002A82EE012A01308742A1EC012AAE
:100D5000F6D1DDE9080100BF91ED002A82EE012AFB
:100D60000C1D013081ED002A2146F5D1ACF1010BBB
:100D700005994FF00008DDF818A04846CDF8089016
:100D8000984505D100EB8C060AEB8E0A33E000BFD4
:100D900090ED001A0A9CB0EE413ABBF1000F94EDC1
:100DA000002A01EE423A00F1040680ED003A15D027
:100DB0000120002406EB040905EB040E99ED002A3E
:100DC0009EED003A01EE432A0130874204F104040B
:100DD00089ED002AEED12644DDF81CE0DDE90804A7
:100DE0009AED002A94ED003A01EE432A04340130D2
:100DF000AAEC012AF4D106EB8300013908F10108BD
:100E0000BED1DDF80890013F049E09F10409039C5E
:100E100003F101030198A6F101060444DDF814B0C2
:100E200005447FF42DAFB5EE401A009BF1EE10FAA9
:100E300020D10EFB0BF1002000294FF000020BD057
:100E400093ED000AB5EE400AF1EE10FA04D101323A
:100E50008A4203F10403F3D38A4208BF6FF004000F
:100E60000BB0BDE8F08FFD2250B20BB0BDE8F08FA3
:100E7000FB22F9E70022F7E7000000002DE9F04F20
:100E800088B0B0F802C00B889C4540F08880B0F86C
:100E900000E013889E4540F08280B1F802905388AC
:100EA00099457CD14FEA9C04476804FB09F04968E6
:100EB0000CF00305029101EB0010019000202CF0D2
:100EC0000303A0EB9C0107EB830607914FEA89031C
:100ED0005168C5F1000A00919FED330ACDE9039CEA
:100EE000CDE9050E0099CE4601EB8008DDE901BC95
:100EF000002CB0EE401AE146384627D062460799EA
:100F00003846B0EE401A00BF92ED002A90ED003A4C
:100F100003EE021A1A4490ED014A92ED002A04EE03
:100F2000021A1A4490ED025A92ED002A05EE021AB6
:100F30001A4490ED036A92ED002A06EE021A01317E
:100F400000F110001A44DFD1D946304655B1514660
:100F500090ED002A99ED003A02EE031A04300131B7
:100F60009944F5D108F1040088ED001ABEF1010E94
:100F70000CF1040C0BF1040B8046B9D1DDF80C9098
:100F80000598DDF810C04844DDF818E007EB8C0741
:100F9000BEF1010E06EB8C06A2D1002000E0FD2080
:100FA00040B208B0BDE8F08F00000000B0B5038883
:100FB0000D88AB4256D145884C88A54252D1148841
:100FC000A3424FD15488A5424CD105FB03FC436892
:100FD00000254968B5EB9C0F506831D04FEA9C0260
:100FE000524200BF93ED000A91ED001A30EE410A23
:100FF00003F1100E01F1100400F1100580ED000A5C
:10100000013293ED010A91ED011A30EE410A80EDB3
:10101000010A93ED020A91ED021A30EE410A80EDC9
:10102000020A93ED030A91ED031A30EE410A73466A
:10103000214680ED030A2846D4D12146284673462E
:101040001CF003020CD05242B3EC010AB1EC011ABD
:1010500030EE410A051D013280ED000A2846F3D129
:10106000002000E0FD2040B2B0BD00002DE9F04FAF
:1010700083B002884B889A424DD144880B889C42A9
:1010800049D10023D1F804804FEA940C416804F060
:10109000030ECDF80080A3EB940402941401960093
:1010A0000194CEF1000B4046BCF1000F1ED0474624
:1010B000029C00BF08683D4638603744486807EB2B
:1010C0000609A85101F11000D1F808A0013447F831
:1010D00006A009EB0607C968374449F8061001461F
:1010E000E8D101996C18014603E000BF009800EBBD
:1010F0008304BEF1000F07D05D4600BF51F8040B1A
:10110000013520603444F9D10133013A08F1040873
:10111000CAD1002000E0FD2040B203B0BDE8F08F4E
:101120009FED1F1A20EE010A9FED1F2ABDEEC01A87
:10113000B5EEC00AF1EE10FA11EE100AB8BF013890
:1011400001EE100A0020B8EEC11A30EE410A9FED00
:10115000151A20EE010ABCEEC01A11EE101A30EE7C
:10116000021AB0EB512F18BF002102EE101A4BF6F5
:10117000502000FE010AC0F60100B8EE422A00EB42
:10118000810090ED011A30EE420AB7EE002A32EEED
:10119000402A20EE010A90ED001A02EE010A704783
:1011A00083F9223E00000044000000C410B5012273
:1011B0001146024805F006F910BD0000000802586B
:1011C00010B500220121024805F0FCF810BD000016
:1011D000000802587047000010B50122082102489B
:1011E00005F0F0F810BD00000008025810B500220C
:1011F0000821024805F0E6F810BD0000000802587A
:10120000704710B50446204618F02EFE10BD10B5EC
:101210000446204616F046FA10BD10B50024FFF72C
:10122000D9FFFFF7EDFF12F021FD044312F0B2FDEC
:101230000443204610BD00002DE9FC4105460E4642
:101240001746002000900190FFF7BAFF922000F0AF
:10125000D1F806226946122000F0ACF8FFF7A6FF8D
:101260009DF80100000200B29DF8001040EA010460
:1012700000EE104AB8EEC00A4C48D0ED000A20EE4D
:10128000200A86ED000A9DF80300000200B29DF8D6
:10129000021040EA010400EE104AB8EEC00A4348CA
:1012A000D0ED000A20EE200A86ED010A9DF8050027
:1012B000000200B29DF8041040EA010400EE104A5A
:1012C000B8EEC00A3948D0ED000A20EE200A86EDBB
:1012D000020AFFF78BFF08226946002000F06AF837
:1012E000FFF77AFF9DF800000F2838D19DF8030022
:1012F000000200B29DF8021040EA010400EE104A1C
:10130000B8EEC00A2A48D0ED000A20EE200A85ED8A
:10131000000A9DF80500000200B29DF8041040EAA2
:10132000010400EE104AB8EEC00A2148D0ED000AD0
:1013300020EE200A85ED010A9DF80700000200B2A8
:101340009DF8061040EA010400EE104AB8EEC00A0B
:101350001748D0ED000A20EE200A85ED020AFFF7BB
:101360002FFFA22000F046F802226946222000F05A
:1013700021F8FFF71BFF9DF80000C0009DF8011049
:1013800040EA6114B4F5806F02DBA4F5006004B29A
:1013900000EE104AF8EEC00AB4EE001AB3EE070AE7
:1013A00000EE810A87ED000ABDE8FC819C03002065
:1013B000A003002070B506460C46154646F0800096
:1013C00000F018F806E0552000F014F82070641CB6
:1013D000681EC5B2002DF6D170BD70B504460D462D
:1013E00044F0800000F006F8552000F003F8287063
:1013F00070BD000001B582B04FF47A70012301AADC
:1014000002A90090024807F0B9FB9DF804000EBD48
:101410007C16002070B505460C462846FFF7EAFF0B
:101420002046FFF7E7FF70BDD2ED020A92ED021AE7
:10143000B6EE000A00EEC10AD2ED030A92ED031ADD
:1014400000EEC10AD0ED000A20EE200AD2ED010A1A
:1014500092ED021A60EE810A92ED001AD2ED031AA3
:1014600041EE610A90ED011A00EE810AD2ED010A07
:1014700092ED031A60EE810A92ED001AD2ED021A83
:1014800041EE210A90ED021A00EE810AF0EE000A08
:1014900020EE200A81ED000A92ED010AD2ED020A47
:1014A00020EE200AD2ED000A92ED031A00EE810A26
:1014B000D0ED000A60EE200A92ED011AD2ED011A79
:1014C000B6EE000A01EE610AD2ED031A92ED032A8C
:1014D000B0EE401A01EEC21AD0ED011AB0EE600A69
:1014E00001EE210AD2ED020A92ED031A60EE810AA2
:1014F00092ED001AD2ED011A41EE610A90ED021A46
:1015000000EE810AF0EE000A20EE200A81ED010AC9
:1015100092ED010AD2ED030A20EE200AD2ED000A74
:1015200092ED021A00EEC10AD0ED000A20EE200A68
:10153000D2ED020A92ED031A60EE810A92ED001AD2
:10154000D2ED011A41EE210A90ED011A00EE810A56
:1015500092ED011AD2ED011AF6EE000A41EE610A8F
:1015600092ED021AD2ED021A41EE610A90ED021AD2
:1015700000EE810AF0EE000A20EE200A81ED020A58
:10158000704700BFFEE7000010B52DED028BB0EEF6
:10159000408A0120194908600020486088600820BE
:1015A000C8600020086148618861C86108629FEDD9
:1015B000141ADFED140AB0EE480A01F0E8FBB0EEB1
:1015C000408A0C209FED0E1ADFED0E0AB0EE480A9D
:1015D00001F0A6FB044600200B4908704870887093
:1015E000C8700871487120128871CC710A4603498D
:1015F000064803F0E7FCBDEC028B10BD681000202C
:1016000000005842000058C23E0300203C15002054
:1016100010B501200E49086000204860886008204D
:10162000C8600020086148618861C8610862FF20C5
:101630000849087048708870C870087148718871CE
:10164000FC20C8710A460249034803F0BBFC10BDE8
:10165000681000203E0300203C15002010B501203A
:101660000E4908600020486088600820C86000209B
:10167000086148618861C8610862FF2008490870F4
:1016800048708870C870087148718871FB20C871F3
:101690000A460249034803F095FC10BD681000207B
:1016A0003E0300203C15002010B52DED028BB0EE5E
:1016B000408A02201949086000204860886008209C
:1016C000C8600020086148618861C86108629FEDB8
:1016D000141ADFED140AB0EE480A01F058FBB0EE20
:1016E000408A0C209FED0E1ADFED0E0AB0EE480A7C
:1016F00001F016FB044600200B4908704870887002
:10170000C8700871487120128871CC710A4603496B
:10171000064803F057FCBDEC028B10BD681000209A
:1017200000005842000058C23E0300203C15002033
:1017300010B502200E49086000204860886008202B
:10174000C8600020086148618861C8610862FF20A4
:101750000849087048708870C870087148718871AD
:10176000FC20C8710A460249034803F02BFC10BD57
:10177000681000203E0300203C15002010B5022018
:101780000E4908600020486088600820C86000207A
:10179000086148618861C8610862FF2008490870D3
:1017A00048708870C870087148718871FB20C871D2
:1017B0000A460249034803F005FC10BD68100020EA
:1017C0003E0300203C15002010B52DED028BB0EE3D
:1017D000408A03201949086000204860886008207A
:1017E000C8600020086148618861C86108629FED97
:1017F000141ADFED140AB0EE480A01F0C8FAB0EE90
:10180000408A0C209FED0E1ADFED0E0AB0EE480A5A
:1018100001F086FA044600200B4908704870887071
:10182000C8700871487120128871CC710A4603494A
:10183000064803F0C7FBBDEC028B10BD681000200A
:1018400000005842000058C23E0300209C140020B3
:1018500010B503200E490860002048608860082009
:10186000C8600020086148618861C8610862FF2083
:101870000849087048708870C8700871487188718C
:10188000FC20C8710A460249034803F09BFB10BDC7
:10189000681000203E0300209C14002010B5032097
:1018A0000E4908600020486088600820C860002059
:1018B000086148618861C8610862FF2008490870B2
:1018C00048708870C870087148718871FB20C871B1
:1018D0000A460249034803F075FB10BD681000205A
:1018E0003E0300209C14002010B52DED028BB0EEBD
:1018F000408A042019490860002048608860082058
:10190000C8600020086148618861C86108629FED75
:10191000141ADFED140AB0EE480A01F038FAB0EEFE
:10192000408A0C209FED0E1ADFED0E0AB0EE480A39
:1019300001F0F6F9044600200B49087048708870E1
:10194000C8700871487120128871CC710A46034929
:10195000064803F037FBBDEC028B10BD6810002079
:1019600000005842000058C23E0300209C14002092
:1019700010B504200E4908600020486088600820E7
:10198000C8600020086148618861C8610862FF2062
:101990000849087048708870C8700871487188716B
:1019A000FC20C8710A460249034803F00BFB10BD36
:1019B000681000203E0300209C14002010B5042075
:1019C0000E4908600020486088600820C860002038
:1019D000086148618861C8610862FF200849087091
:1019E00048708870C870087148718871FB20C87190
:1019F0000A460249034803F0E5FA10BD68100020CA
:101A00003E0300209C14002010B504464FF40070E3
:101A10000E4908600020486088600820C8600020E7
:101A2000086148618861C8610862200A0849087035
:101A30004C7000208870C870087148718871C87136
:101A40000A460249034803F0BDFA10BD68100020A1
:101A50003E0300209C14002010B504464FF4007093
:101A60000E4908600020486088600820C860002097
:101A7000086148618861C861086209490870487056
:101A8000200A8870CC700020087148718871C87174
:101A90000A460249034803F095FA10BD6810002079
:101AA0003E0300203C150020B0F90010B0F90820DA
:101AB000891A00EE101AB8EEC00B9FED1F1BB4EE92
:101AC000C10BF1EE10FA03DD8169491E816112E05C
:101AD000B0F90010B0F90820891A00EE101AB8EE1B
:101AE000C00B9FED171BB4EEC10BF1EE10FA02D242
:101AF0008169491C81618169C1EB4131B0F90020E4
:101B0000114400EE101AB8EEC00ADFED0F0A80EEA5
:101B1000201A9FED0E0A21EE000AF0EE000A20EED8
:101B2000200ADFED0B0A80EE201AB3EE010A21EE47
:101B3000000A80ED050A70470000000000FFAF407A
:101B40000000000000FFAFC000F8FF45DA0F494079
:101B5000000086432DE9F041DFF810C4BCF90C7099
:101B6000002F01DBBC4601E0C7F1000C00EE10CAFB
:101B7000B8EEC00ADFEDFE0A20EE200AF3EE040AFA
:101B800020EE200A9FEDFB1AC0EE010ADFF8DCC34D
:101B9000DCF800C0BCF90260002E01DBB44601E0B5
:101BA000C6F1000C00EE10CAB8EEC01A9FEDF20AA2
:101BB00000EE810ADFF8B4C3BCF92050002D01DB30
:101BC000AC4601E0C5F1000C00EE90CAF8EEE00A68
:101BD0009FEDE71A60EE810AB3EE041A60EE810A07
:101BE000DFEDE41A80EEA11ADFF880C3DCF814C040
:101BF000BCF90240002C01DBA44601E0C4F1000C5A
:101C000000EE90CAF8EEE00A01EE200ADFF85CC3AD
:101C1000BCF90C30002B01DB9C4601E0C3F1000C49
:101C200000EE90CAF8EEE00A9FEDD41A60EE810A49
:101C3000B3EE041A60EE810ADFEDCE1A80EEA11A2F
:101C4000DFF828C3BCF90C20002A01DB944601E030
:101C5000C2F1000C00EE90CAF8EEE00A61EE200A34
:101C6000B3EE041A60EE810A9FEDC21AC0EE811A2B
:101C700070EE210ADFF8F4C2BCF92010002901DB64
:101C80008C4601E0C1F1000C00EE10CAB8EEC00AAB
:101C90009FEDBA1A20EE010AB3EE041A20EE010AF3
:101CA000DFEDB41A80EE211ADFF8C0C2BCF92000C3
:101CB000002801DB844601E0C0F1000C00EE10CAF0
:101CC000B8EEC00A21EE000AB3EE041A20EE010AB3
:101CD0009FEDA81AC0EE011A30EEA10ADFEDA80AA6
:101CE00030EE200ADFEDA60A30EE200ADFF894C2BB
:101CF0008CED6B0A6046D0ED6B0AA348408B00EE7A
:101D0000100AB8EE400AF4EEC00AF1EE10FA0BDB4E
:101D10009E48807A642807DA604690ED610AB5EE45
:101D2000C00AF1EE10FA03D09848807A32287DDAA2
:101D300001208E4981F8BC05084690EDB21B00F5E4
:101D40009B6090ED082B924890ED000AB7EEC00A18
:101D500032EE402B9FED8F0B01EE020B084690ED0B
:101D6000B61B00F59B6090ED0A2B01EE020B0846B6
:101D700090EDC21B00F59B6090ED162B01EE020B5F
:101D8000084690EDC61B00F59B6090ED182B01EE08
:101D9000020BB7EEC00B814880ED000A084690EDBB
:101DA000FE1B00F59B6090ED082B794890ED000A32
:101DB000B7EEC00A32EE402B9FED760B01EE020B20
:101DC00001F56A7090ED181B00F5987090ED0A2BE4
:101DD00001EE020BA0F5987090ED241B00F59870B1
:101DE00090ED162B01EE020BA0F5987090ED281BDC
:101DF00000F5987090ED182B11EE420BB7EEC00B6A
:101E0000674880ED000A5F4890ED5E0A654880ED06
:101E1000000A084690EDBA0BB1EE401B00F59B603E
:101E200090ED102B604890ED000A00E0FDE3B7EE66
:101E3000C00A30EE420B21EE000B084690EDBE2B9F
:101E400000F59B6090ED123B584890ED001AB7EEFC
:101E5000C11A31EE431B02EE010BB7EEC00B544822
:101E600080ED000A01F56A7090ED1C0BB1EE401B8D
:101E700000F5987090ED102B4B4890ED000AB7EEEE
:101E8000C00A30EE420B21EE000B01F56A7090EDB6
:101E9000202B00F5987090ED123B444890ED001A0D
:101EA000B7EEC11A31EE431B02EE010BB7EEC00BC9
:101EB000404880ED000A394890ED000ADFED3E0A07
:101EC00020EE200AF2EE0E0A20EE200ADFED3B0A99
:101ED00080EE201A3A4880ED001A314890ED000A51
:101EE000DFED350A20EE200AF2EE0E0A20EE200A7F
:101EF000DFED320A80EE201A324880ED001A304CB5
:101F000094ED000AB7EEC00AB0EEC00B9FED2E1B99
:101F100020EE010BB3EE041B20EE010B9FED2C2BEA
:101F200080EE021B0C462468B4F90230002B01DB62
:101F30001C4600E05C4200EE104AB8EEC02B9FED5C
:101F4000150B01EE020B1F4C94ED001AB7EEC11AEF
:101F5000B0EEC11B9FED1C2B21EE021BB3EE042B38
:101F600021EE021B9FED1A3B36E0000080040020AA
:101F70008600E03A0000804600000000158CCA3D53
:101F8000DBF90241800800200C11002048110020DC
:101F9000A80000200000000000000000C000002099
:101FA000BC000020CC00002054000020580000207D
:101FB000C4000020C8000020548061453D0A5F41F4
:101FC000E0000020E4000020000000C010005C3FA2
:101FD000000000000000D04081EE032BFE4C64693D
:101FE000B4F90220002A01DB144600E0544201EE5D
:101FF000104AB8EEC13BB0EE401B02EE031BF74C9B
:1020000094ED000AB7EEC00AB0EEC00B9FEDF42BC2
:1020100020EE020BB3EE042B20EE020B1FED143B5F
:1020200080EE032BEC4CB4F90C10002901DB0C46BC
:1020300000E04C4200EE104AB8EEC00B22EE000B5E
:10204000B3EE042B20EE020B1FED1F2B80EE023BA4
:1020500031EE031BE44C94ED000AB7EEC00AB0EE7B
:10206000C00B9FEDDF2B20EE020BB3EE042B20EE16
:10207000020B1FED293B80EE032BD74CB4F9200057
:10208000002801DB044600E0444200EE104AB8EEAE
:10209000C00B22EE000BB3EE042B20EE020B1FED63
:1020A000342B80EE023B31EE030B9FEDD01B30EE64
:1020B000010B9FEDCE1B30EE010BB7EEC00BCD4CEC
:1020C00084ED000ACC4890ED000A5FED450A20EE51
:1020D000200AF2EE0E0A20EE200A5FED480A80EE9A
:1020E000201AC64880ED001AC54890ED000A5FED41
:1020F0004E0A20EE200AF2EE0E0A20EE200A5FEDD4
:10210000510A80EE201ABF4880ED001ABB4C94EDB6
:10211000000AB7EEC00AB0EEC00B1FED551B20EE53
:10212000010BB3EE041B20EE010B1FED572B80EECD
:10213000021BA94C2468B4F90230002B01DB1C46B9
:1021400000E05C4200EE104AB8EEC02B1FED6F0BB2
:1021500001EE020BAB4C94ED001AB7EEC11AB0EED3
:10216000C11B1FED672B21EE021BB3EE042B21EEEA
:10217000021B1FED693B81EE032B974C6469B4F998
:102180000220002A01DB144600E0544201EE104A0E
:10219000B8EEC13BB0EE401B02EE031B974C94ED32
:1021A000000AB7EEC00AB0EEC00B9FED8D2B20EEFB
:1021B000020BB3EE042B20EE020B1FED7B3B80EEF7
:1021C000032B854CB4F90C10002901DB0C4600E010
:1021D0004C4200EE104AB8EEC00B22EE000BB3EEFC
:1021E000042B20EE020B1FED862B80EE023B31EE1E
:1021F000032B844C94ED000AB7EEC00AB0EEC00B7E
:102200009FED771B20EE010BB3EE041B20EE010BBC
:102210001FED913B80EE031B6F4CB4F920000028AA
:1022200001DB044600E0444200EE104AB8EEC00B69
:1022300021EE000BB3EE041B20EE010B1FED9C1BE7
:1022400080EE013B32EE030BB7EEC00B6E4C84ED1B
:10225000000A6E4890ED000A5FEDA90A20EE200A00
:10226000F2EE0E0A20EE200A5FEDAC0A80EE201A94
:10227000674880ED001A044694ED000AF0EE000A6B
:1022800080EE201AB7EEC10AB0EEC00B1FEDB21BF4
:1022900020EE010BB3EE041B20EE010B1FEDB42B5F
:1022A00080EE021B4C4C2468B4F90230002B01DB99
:1022B0001C4600E05C4200EE104AB8EEC02B1FED59
:1022C000CB0B01EE020B524C94ED001AF0EE001A0B
:1022D00081EE212AB7EEC21AB0EEC11B1FEDC62B4C
:1022E00021EE021BB3EE042B21EE021B1FEDC83BB7
:1022F00081EE032B384C6469B4F90220002A01DB1B
:10230000144600E0544201EE104AB8EEC13BB0EE74
:10231000401B02EE031B3E4C94ED000AF0EE000A57
:1023200080EE202AB7EEC20AB0EEC00B9FED2C2B38
:1023300020EE020BB3EE042B20EE020B1FEDDC3B74
:1023400080EE032B244CB4F90C10002901DB0C4661
:1023500000E04C4200EE104AB8EEC00B22EE000B3B
:10236000B3EE042B20EE020B1FEDE72B80EE023BB9
:1023700031EE031B264C94ED000AF0EE000A80EECD
:10238000202AB7EEC20AB0EEC00B9FED152B20EE4F
:10239000020BB3EE042B20EE020B1FEDF33B80EE9D
:1023A000032B0D4CB4F92000002801DB044600E0AB
:1023B000444200EE104AB8EEC00B22EE000BB3EE22
:1023C000042B20EE020B9FED132B80EE023B31EE2F
:1023D000030BB7EEC00B21E080040020E0000020DA
:1023E000000000A08251B93FE4000020000000601E
:1023F0003B5F2040D0000020C4000020EC00002003
:10240000C8000020F0000020D8000020CC000020F0
:10241000E8000020000000000000D040A24C84ED45
:10242000000AA24890ED6B0AA148D0ED000A30EEF8
:10243000600AA04880ED000A90ED000AB5EEC00ADF
:10244000F1EE10FA03D29FED9C0A80ED000A9B4842
:1024500090ED000A9448D0ED000A70EE200A9848EA
:1024600090ED001A81EE200A9248D0ED000A60EE4D
:10247000200A944890ED000AB6EE001A00EE810A98
:10248000914890ED001AF0EE001AC1EE210A8B4837
:1024900090ED001A8448D0ED001A71EE211A80EEFA
:1024A000A11A8448D0ED000A61EE200AB6EE001AA7
:1024B00000EEC10A854880ED040A804890ED000ACC
:1024C0007948D0ED000A70EE200A814890ED001A9C
:1024D00081EE200A7748D0ED000A60EE200A7D48A0
:1024E00090ED000AB6EE001A00EE810A764890EDF3
:1024F000001AF0EE001AC1EE210A704890ED001AA1
:102500006948D0ED001A31EE211AC0EE811A6948EF
:10251000D0ED000A61EEA00AB6EE001A00EEC10A84
:10252000B7EEC00A6148583880ED2C0B583090ED5A
:10253000610AB5EEC00AF1EE10FA6ED15F4890ED77
:10254000000A5948D0ED000A70EE200A5C4890ED70
:10255000001A81EE200A5748D0ED000A60EE200AEA
:10256000584890ED000A9FED541A00EE810A564833
:1025700090ED001AF0EE001AC1EE210A4F4890EDDE
:10258000001A4948D0ED001A31EE211AC0EE811A26
:102590004848D0ED000A61EEA00AB7EE001A00EE3E
:1025A000C10A4A4880ED040A444890ED000A3E48BA
:1025B000D0ED000A70EE200A454890ED001A81EE39
:1025C000200A3C48D0ED000A60EE200A414890ED18
:1025D000000A9FED391A00EE810A3B4890ED001A7F
:1025E000F0EE001AC1EE210A344890ED001A2E4890
:1025F000D0ED001A71EE211A80EEA11A2D48D0ED0F
:10260000000A61EE200AB7EE001A00EEC10AB7EE2A
:10261000C00A2648583880ED2C0B2C48D0ED040A0F
:10262000B0EE600ADFED2C0A00E03AE016F0F9FAAD
:10263000264880ED040AD0ED090AB0EE600ADFED0D
:10264000260A16F0EEFA214880ED090A90ED040AF8
:10265000DFED220A20EE200AF2EE0E0A20EE200A1A
:10266000DFED1F0A80EE201ABDEEC10A10EE100A3F
:1026700000B216498881084690ED090ADFED170A75
:1026800020EE200AF2EE0E0A20EE200ADFED140AF8
:1026900080EE201ABDEEC10A10EE100A01B20B48FE
:1026A0000184BDE8F0810000DC00002080080020EB
:1026B000D0000020D400002000000000D80000203E
:1026C000C4000020C0000020CC00002080040020B6
:1026D000C8000020BC0000203333534054806145C3
:1026E0003D0A5F4110B5024801F00EFA10BD00002E
:1026F000041C002010B5024801F006FA10BD0000CD
:10270000D41E002010B5024801F0FEF910BD0000F3
:102710004C1F002010B5024801F0F6F910BD000072
:10272000C41F002010B5024801F0EEF910BD0000F2
:102730007C1C002010B5024801F0E6F910BD000035
:10274000F41C002010B5024801F0DEF910BD0000B5
:102750005C1E002010B5024801F0D6F910BD000043
:102760000417002010B5024801F0CEF910BD00009A
:102770007C17002010B5024801F0C6F910BD00001A
:102780003C20002010B5024801F0BEF910BD000049
:10279000B420002010B5024801F0B6F910BD0000C9
:1027A0006C1D002010B5024801F0AEF910BD00000C
:1027B000E41D00200146374A0868904249D0354A56
:1027C00018320868904244D0324A30320868904249
:1027D0003FD0304A4832086890423AD02D4A6032A1
:1027E0000868904235D02B4A78320868904230D041
:1027F000284A9032086890422BD0264AA8320868AE
:10280000904226D0244A0868904222D0224A1832A8
:10281000086890421DD0204A30320868904218D093
:102820001D4A48320868904213D01B4A603208683B
:1028300090420ED0184A78320868904209D0164A61
:1028400090320868904204D0134AA8320868904237
:1028500001D1012000E00020B0B10A78103A18231D
:10286000B2FBF3F000F007020C4B9A5CCA65032838
:1028700005D90A686FF30902121D8A6503E00A6828
:102880006FF309028A6503E0086820F0FF0088659D
:10289000886D7047100002401004024028B60108FD
:1028A00010B502682B4C0368A34222D0294C143483
:1028B0000368A3421DD0274C28340368A34218D0D4
:1028C000244C3C340368A34213D0224C5034036898
:1028D000A3420ED01F4C64340368A34209D01D4CA0
:1028E00078340368A34204D01A4C8C340368A342A2
:1028F00001D1012300E000238BB10378083B1424AD
:10290000B3FBF4F1144B03EB81030366124B8033EA
:10291000436601F01F040123A340836618E0037897
:10292000103B1824B3FBF4F10C4B9A4204D80B4B28
:10293000A83B9A4200D30831094B03EB810303669D
:10294000074B8033436601F01F040123A3408366D5
:1029500010BD00000854025800580258B804024044
:10296000000802400179A9B3082940D8204B026829
:102970009A4222D01E4B143302689A421DD01C4B3F
:10298000283302689A4218D0194B3C3302689A42A5
:1029900013D0174B503302689A420ED0144B643355
:1029A00002689A4209D0124B783302689A4204D0E6
:1029B0000F4B8C3302689A4201D1012200E00022C1
:1029C0004AB14A1E0B4B03EB8202C266094A4032EF
:1029D000026708E00BE04A1E074B03EB8202C26667
:1029E000054A403202674A1E0123934043677047FD
:1029F00008540258005902580009024001460020BC
:102A00008A69D2B98A6A32B1012A0DD0022A03D06A
:102A1000032A10D10EE000BFCA6A02F08072B2F140
:102A2000807F00D1012007E0CA6AB2F1C07F00D1E7
:102A3000012001E000E000BF36E08A69B2F5005FE6
:102A40001BD18A6A32B1012A07D0022A03D0032A95
:102A500011D10AE000BF01200EE0CA6A02F08072C4
:102A6000B2F1807F00D1012006E0CA6AB2F1C07FD6
:102A700000D1012000E000BF16E08A6A32B1012ACD
:102A800005D0022A04D0032A0CD103E000BF00BF06
:102A9000012008E0CA6A02F08072B2F1807F00D1A2
:102AA000012000E000BF00BF70470000F0B5856D59
:102AB000846D984F0668BE4270D0964F18370668EE
:102AC000BE426BD0934F30370668BE4266D0914FFE
:102AD00048370668BE4261D08E4F60370668BE42F6
:102AE0005CD08C4F78370668BE4257D0894F9037FC
:102AF0000668BE4252D0874FA8370668BE424DD006
:102B0000854F0668BE4249D0834F18370668BE42DB
:102B100044D0814F30370668BE423FD07E4F4837A1
:102B20000668BE423AD07C4F60370668BE4235D058
:102B3000794F78370668BE4230D0774F90370668B5
:102B4000BE422BD0744FA8370668BE4226D0734FC2
:102B50000668BE4222D0714F14370668BE421DD0AF
:102B60006E4F28370668BE4218D06C4F3C37066857
:102B7000BE4213D0694F50370668BE420ED0674F31
:102B800064370668BE4209D0644F78370668BE4293
:102B900004D0624F8C370668BE4201D1012600E0A6
:102BA00000263EB1D0E919767E60C66E16B1D0E936
:102BB0001C767E60574F0668BE4249D0554F183785
:102BC0000668BE4244D0534F30370668BE423FD0FD
:102BD000504F48370668BE423AD04E4F60370668BD
:102BE000BE4235D04B4F78370668BE4230D0494F91
:102BF00090370668BE422BD0464FA8370668BE42C3
:102C000026D0454F0668BE4222D0434F183706688B
:102C1000BE421DD0404F30370668BE4218D03E4FEE
:102C200048370668BE4213D03B4F60370668BE4245
:102C30000ED0394F78370668BE4209D0364F9037EC
:102C40000668BE4204D0344FA8370668BE4201D1A0
:102C5000012600E00026DEB190F85C6006F01F0758
:102C60003F26BE40AE600668366826F480260768B8
:102C70003E60066873608668402E04D10668B260C4
:102C80000668F16044E00668B1600668F2603FE003
:102C9000224F0668BE4222D0204F14370668BE423B
:102CA0001DD01E4F28370668BE4218D01B4F3C3738
:102CB0000668BE4213D0194F50370668BE420ED088
:102CC000164F64370668BE4209D0144F783706683D
:102CD000BE4204D0114F8C370668BE4201D1012696
:102CE00000E00026A6B190F85C6006F01F07012600
:102CF000BE406660066873608668402E04D1066830
:102D0000B2600668F16003E00668B1600668F260D0
:102D1000F0BD0000100002401004024008540258A8
:102D2000014671EE602AF0EE621AB0EE602A70EE93
:102D3000422A82EEA13A01208840401E02EE900A0B
:102D4000F8EEE22A63EE222AFCEEE22A12EE900A64
:102D500080B27047B0EE401A30EEC10AF0EE401A71
:102D6000B0EE412A00EE100AB8EEC00A60EE212A49
:102D700001228A4000EE102AB8EEC00AB7EE003AEF
:102D800030EE433A82EE830A30EE020A7047F0EEEC
:102D9000401AF4EEC11AF1EE10FA02DDB0EE410A6B
:102DA0007047F4EEE01AF1EE10FA02D2B0EE600ACB
:102DB000F6E7B0EE610AF3E77047D2ED020A92ED52
:102DC000021AB6EE000A00EEC10AD2ED030A92ED35
:102DD000031A00EEC10AD0ED000A20EE200AD2ED5F
:102DE000010A92ED021A60EE810A92ED001AD2ED0C
:102DF000031A41EE210A90ED011A00EE810AD2ED8C
:102E0000010A92ED031A60EE810A92ED001AD2EDEA
:102E1000021A41EE610A90ED021A00EE810AF0EE0C
:102E2000000A20EE200A81ED000A92ED010AD2ED9F
:102E3000020A20EE200AD2ED000A92ED031A00EEFB
:102E4000C10AD0ED000A60EE200A92ED011AD2ED1F
:102E5000011AB6EE000A01EE610AD2ED031A92EDF4
:102E6000032AB0EE401A01EEC21AD0ED011AB0EEFC
:102E7000600A01EE210AD2ED020A92ED031A60EE19
:102E8000810A92ED001AD2ED011A41EE210A90ED6D
:102E9000021A00EE810AF0EE000A20EE200A81ED0F
:102EA000010A92ED010AD2ED030A20EE200AD2EDCA
:102EB000000A92ED021A00EE810AD0ED000A20EE1F
:102EC000200AD2ED020A92ED031A60EE810A92ED19
:102ED000001AD2ED011A41EE610A90ED011A00EEDE
:102EE000810A92ED011AD2ED011AF6EE000A41EEC6
:102EF000610A92ED021AD2ED021A41EE610A90EDDA
:102F0000021A00EE810AF0EE000A20EE200A81ED9E
:102F1000020A704772B600BFFEE70000074800686B
:102F200040F002000549086000BF04480838006806
:102F300000F400500028F8D0704700000C480258F8
:102F400010B5024802F0F4F910BD00009C140020F6
:102F500010B5024802F0ECF910BD00003C1500204D
:102F600010B5024802F0E4F910BD0000DC150020A5
:102F700010B501464A6B0868D0F884004FF6FC741F
:102F8000A04340EA82000C68C4F884000868D0F8C6
:102F9000840020F47F04088F44EA00400C68C4F8E1
:102FA0008400886B02440868D0F888004FF6FC74EF
:102FB000A04340EA82000C68C4F888000868D0F892
:102FC000880020F4FE04888F44EA00400C68C4F8AE
:102FD0008800C86B02EB40020868D0F8A0004FF6EA
:102FE000FC74A04340EA82000C68C4F8A0000868A2
:102FF000D0F8A00020F4FE044020405A44EA0040EB
:103000000C68C4F8A000D1E9104004FB0022086855
:10301000D0F8B0004FF6FC74A04340EA82000C6880
:10302000C4F8B0000868D0F8B00020F4FE04B1F88D
:10303000480044EA00400C68C4F8B000D1E91240EE
:1030400004FB00220868D0F8AC004FF6FC74A043E3
:1030500040EA82000C68C4F8AC00D1E9144004FBDB
:1030600000220868D0F8F0004FF6FC74A04340EA54
:1030700082000C68C4F8F0000868D0F8F00020F472
:103080007C14B1F8580044EA00400C68C4F8F00021
:10309000886D02EB40020868D0F8C0004FF6FC745F
:1030A000A04340EA82000C68C4F8C0000868D0F869
:1030B000C00020F47C14B1F85C0044EA00400C68C5
:1030C000C4F8C0000868D0F8C00020F07C5491F823
:1030D000600044EA00600C68C4F8C0002A4C486BE9
:1030E00004EB8000C866CC6E886B04EB80040C6730
:1030F0000C6FC86B04EBC0044C67D1E9100460434B
:103100004C6F04EB80048C67D1E9120460438C6F30
:1031100004EB8004CC67D1E914046043CC6F04EB6A
:103120008004802044504458886D04EBC0048420FF
:1031300044508C6EC86D60438424645804EB800452
:10314000882044508C6E086E60438824645804EBD9
:1031500080049020445040580C4CA04209D998312A
:10316000486840F020004860032001F898090120D9
:1031700010BDCB6E02E0002018601B1D902040584F
:103180009842F8D80020F3E700AC0040FCD30040A0
:103190002DE9F041054614461E46D1F804C0BCF1A5
:1031A000000F0AD1D1F810C0D1F808804CEA080C01
:1031B000B1F800804CEA88430BE0D1F810C04CF025
:1031C000804CD1F808804CEA080CD1F800804CEA19
:1031D000080391F82080D1F81CC04CEA086CD1F8A3
:1031E00018804CEA080CD1F814804CEA080CB1F8AD
:1031F0000C804CEA0847D5F868C00CFB06FCD5F8F3
:10320000848008EB8C021360121D1760121D0020D1
:1032100019E000F1030C14F80CC04FEA0C6800F13F
:10322000020C14F80CC048EA0C4800F1010C14F828
:103230000CC048EA0C2C14F800804CEA080CC2F8C8
:1032400000C0121D001DDFF81480D1F80CC018F862
:103250000CC08445DDD8BDE8F081000030B601081F
:1032600030B5034613B94FF6FF7030BD09E013F8CF
:10327000014B82EA0400C0B2054D35F8100080EA27
:103280002222081EA1F10101F1D11046EDE7000054
:10329000CEA701082DE9F041044603F099F88046D5
:1032A00014B90120BDE8F08194F83500022808D057
:1032B0008020606500BF002084F8340000BF01203A
:1032C000F0E7FE492068884249D0FC49183120685F
:1032D000884244D0F9493031206888423FD0F749CC
:1032E0004831206888423AD0F449603120688842E9
:1032F00035D0F24978312068884230D0EF4990319A
:10330000206888422BD0ED49A8312068884226D019
:10331000EB492068884222D0E94918312068884268
:103320001DD0E74930312068884218D0E44948313F
:103330002068884213D0E2496031206888420ED06C
:10334000DF4978312068884209D0DD499031206812
:10335000884204D0DA49A8312068884201D101208E
:1033600000E0002068B12068006820F01E0021689D
:1033700008602068406920F0800021684861256865
:1033800006E02068006820F00E00216808602568CB
:10339000CA492068884270D0C849183120688842DC
:1033A0006BD0C64930312068884266D0C349483165
:1033B0002068884261D0C1496031206888425CD071
:1033C000BE4978312068884257D0BC499031206886
:1033D000884252D0B949A831206888424DD0B849B6
:1033E0002068884249D0B64918312068884244D0C4
:1033F000B3493031206888423FD0B1494831206814
:1034000088423AD0AE4960312068884235D0AC4914
:1034100078312068884230D0A949903120688842AC
:103420002BD0A749A8312068884226D0A54920681A
:10343000884222D0A3491431206888421DD0A14976
:1034400028312068884218D09E493C312068884243
:1034500013D09C495031206888420ED0994964317C
:103460002068884209D0974978312068884204D082
:1034700094498C312068884201D1012000E000206D
:1034800028B1206E006820F48070216E08608B499E
:103490002068884249D0894918312068884244D040
:1034A00086493031206888423FD0844948312068BD
:1034B00088423AD0814960312068884235D07F49BE
:1034C00078312068884230D07C4990312068884229
:1034D0002BD07A49A8312068884226D078492068C4
:1034E000884222D076491831206888421DD074491C
:1034F00030312068884218D07149483120688842AC
:1035000013D06F496031206888420ED06C49783101
:103510002068884209D06A4990312068884204D0E6
:103520006749A8312068884206D12068006820F0E9
:1035300001002168086005E02068006820F00100B3
:103540002168086011E002F043FFA0EB08000528A5
:103550000BD920206065032084F8350000BF0020CF
:1035600084F8340000BF01209CE6286800F00100C8
:103570000028E8D151492068884249D04F49183184
:103580002068884244D04D493031206888423FD07D
:103590004A494831206888423AD048496031206819
:1035A000884235D0454978312068884230D0434937
:1035B0009031206888422BD04049A8312068884249
:1035C00026D03F492068884222D03D4918312068E2
:1035D00088421DD03A4930312068884218D0384995
:1035E00048312068884213D03549603120688842CC
:1035F0000ED0334978312068884209D03049903163
:103600002068884204D02E49A8312068884201D120
:10361000012000E0002040B1A66D94F85C0000F0AD
:103620001F013F208840B06007E0A76D94F85C0060
:1036300000F01F01012088407860204920688842FE
:1036400076D01E4918312068884271D01B4930312C
:10365000206888426CD0194948312068884267D078
:10366000164960312068884262D014497831206858
:1036700088425DD0114990312068884258D00F4966
:10368000A8312068884253D00D49206888424FD025
:103690000B491831206888424AD0094930312068E6
:1036A000884245D0064948312068884240D00449C4
:1036B0006031206888423BD0014905E0100002409B
:1036C00010040240085402587831206888422FD0F4
:1036D0002549206888422BD0234918312068884228
:1036E00026D022492068884222D0204914312068FF
:1036F00088421DD01D4928312068884218D01B49B6
:103700003C312068884213D01849503120688842E3
:103710000ED0164964312068884209D013497831A7
:103720002068884204D011498C312068884201D138
:10373000012000E0002068B1D4E919104860E06E73
:1037400040B1E06E006820F48070E16E0860D4E95A
:103750001C104860012084F8350000BF002084F868
:10376000340000BF00BF9DE5A00402400854025889
:1037700070B504460CB9012070BD94F835000228DC
:1037800003D0802060650120F6E7DC49206888428C
:1037900049D0DA4918312068884244D0D7493031BD
:1037A000206888423FD0D5494831206888423AD0C5
:1037B000D24960312068884235D0D04978312068BC
:1037C000884230D0CD499031206888422BD0CB49F7
:1037D000A8312068884226D0C9492068884222D072
:1037E000C7491831206888421DD0C549303120684A
:1037F000884218D0C24948312068884213D0C04955
:103800006031206888420ED0BD49783120688842F6
:1038100009D0BB4990312068884204D0B849A8310A
:103820002068884201D1012000E00020F0B304208C
:1038300084F83500B149206888424BD0AF4918312F
:103840002068884246D0AD4930312068884241D056
:10385000AA494831206888423CD0A8496031206894
:10386000884237D0A54978312068884232D0A349B0
:103870009031206888422DD0A049A8312068884224
:1038800028D09F492068884224D09D49183120685B
:1038900088421FD09A493031206888421AD098490E
:1038A00048312068884215D0954900E020E0603119
:1038B000206888420ED0924978312068884209D029
:1038C0008F4990312068884204D08D49A831206802
:1038D000884206D12068006820F001002168086055
:1038E00009E12068006820F001002168086002E119
:1038F0002068006820F00E00216808607F49206879
:10390000884249D07D4918312068884244D07B499B
:103910003031206888423FD0784948312068884259
:103920003AD0764960312068884235D07349783181
:103930002068884230D071499031206888422BD06D
:103940006E49A8312068884226D06D492068884297
:1039500022D06B491831206888421DD06849303127
:103960002068884218D0664948312068884213D0C0
:1039700063496031206888420ED0614978312068FF
:10398000884209D05E4990312068884204D05C4961
:10399000A8312068884206D12068006820F0010024
:1039A0002168086005E02068006820F001002168B7
:1039B000086052492068884270D050491831206808
:1039C00088426BD04D4930312068884266D04B49DF
:1039D00048312068884261D0484960312068884277
:1039E0005CD0464978312068884257D043499031AD
:1039F0002068884252D04149A831206888424DD081
:103A00003F492068884249D03D49183120688842A2
:103A100044D03B493031206888423FD03849483152
:103A2000206888423AD0364960312068884235D0D3
:103A3000334978312068884230D03149903120684C
:103A400088422BD02E49A8312068884226D02D49A3
:103A50002068884222D02B491431206888421DD02A
:103A6000284928312068884218D026493C312068EE
:103A7000884213D023495031206888420ED0214912
:103A800064312068884209D01E4978312068884214
:103A900004D01C498C312068884201D1012000E00B
:103AA0000020D8B1206E006820F48070216E08607C
:103AB000A56D94F85C0000F01F010120884068604B
:103AC000D4E919104860E06E40B1E06E006820F45F
:103AD0008070E16E0860D4E91C104860012084F811
:103AE000350000BF002084F8340000BF206D10B105
:103AF0002046216D884700203EE60000100002406D
:103B000010040240085402582DE9F84F04460020E2
:103B10000090FE4800684FF41651B0FBF1FAA66D14
:103B2000D4F858803768D8F80090F949206888425E
:103B300049D0F74918312068884244D0F4493031DF
:103B4000206888423FD0F2494831206888423AD004
:103B5000EF4960312068884235D0ED4978312068DE
:103B6000884230D0EA499031206888422BD0E84919
:103B7000A8312068884226D0E6492068884222D0B1
:103B8000E4491831206888421DD0E249303120686C
:103B9000884218D0DF4948312068884213D0DD4977
:103BA0006031206888420ED0DA4978312068884236
:103BB00009D0D84990312068884204D0D549A8312D
:103BC0002068884201D1012000E0002000287DD03B
:103BD00094F85C0000F01F0108208840384000285D
:103BE00068D0CB492068884249D0C949183120683B
:103BF000884244D0C6493031206888423FD0C44909
:103C00004831206888423AD0C149603120688842F2
:103C100035D0BF4978312068884230D0BC499031D6
:103C2000206888422BD0BA49A8312068884226D023
:103C3000B8492068884222D0B649183120688842A5
:103C40001DD0B44930312068884218D0B14948317C
:103C50002068884213D0AF496031206888420ED076
:103C6000AC4978312068884209D0AA49903120684F
:103C7000884204D0A749A8312068884204D120682E
:103C8000006800F0040003E02068006800F008000D
:103C900080B12068006820F004002168086094F872
:103CA0005C0000F01F0108208840B060606D40F0AB
:103CB0000100606594F85C0000F01F01012088405D
:103CC0003840E8B392492068884200E0B7E24BD020
:103CD0008F4918312068884246D08D49303120689C
:103CE000884241D08A494831206888423CD088497E
:103CF00060312068884237D0854978312068884211
:103D000032D083499031206888422DD08049A83133
:103D10002068884228D07F492068884224D07D4985
:103D20001831206888421FD07A4930312068884293
:103D30001AD0784948312068884215D0754900E08A
:103D400026E06031206888420ED0724978312068C0
:103D5000884209D06F4990312068884204D06D496B
:103D6000A8312068884204D12068406900F08000B2
:103D700002E020680068002050B194F85C0000F078
:103D80001F0101208840B060606D40F00200606556
:103D900094F85C0000F01F01042088403840E8B32C
:103DA0005B49206888424BD05949183120688842C5
:103DB00046D0574930312068884241D05449483173
:103DC000206888423CD0524960312068884237D010
:103DD0004F4978312068884232D04D49903120686F
:103DE00088422DD04A49A8312068884228D04949C4
:103DF0002068884224D047491831206888421FD063
:103E000044493031206888421AD0424948312068FC
:103E1000884215D03F496031206800E024E08842A4
:103E20000ED03C4978312068884209D03949903118
:103E30002068884204D03749A8312068884204D1DC
:103E40002068006800F0020002E02068006800209E
:103E500050B194F85C0000F01F0104208840B0606D
:103E6000606D40F00400606594F85C0000F01F0194
:103E7000102088403840E8B325492068884251D056
:103E800023491831206888424CD0214930312068BC
:103E9000884247D01E4948312068884242D01C4998
:103EA0006031206888423DD01949783120688842C5
:103EB00038D0174990312068884233D01449A8314E
:103EC000206888422ED01349206888422AD01149A0
:103ED00018312068884225D00E4930312068884248
:103EE00020D00C494831206888421BD009496031F4
:103EF000206800E04DE0884214D0064978312068FF
:103F000088420FD003499031206805E0F00300207B
:103F10001000024010040240884203D0FE4920688D
:103F2000884204D12068006800F0080003E020689F
:103F3000006800F0040060B394F85C0000F01F011A
:103F400010208840B0602068006800F4802080B1B4
:103F50002068006800F4002028B9206CC8B1204611
:103F6000216C884715E0A06C98B12046A16C884769
:103F70000FE02068006800F4807028B920680068AD
:103F800020F0080021680860206C10B12046216CE8
:103F9000884794F85C0000F01F01202088403840DA
:103FA00000287DD0DD492068884249D0DB4918319E
:103FB0002068884244D0D9493031206888423FD0B7
:103FC000D6494831206888423AD0D44960312068C7
:103FD000884235D0D14978312068884230D0CF49E5
:103FE0009031206888422BD0CC49A8312068884283
:103FF00026D0C949A8392068884221D0C6499039BD
:10400000206888421CD0C44978392068884217D07B
:10401000C14960392068884212D0BF4948392068B8
:1040200088420DD0BC4930392068884208D0BA494E
:1040300018392068884203D0B7492068884204D1E3
:104040002068006800F0100003E02068006800F0BD
:10405000020028B394F85C0000F01F012020884083
:10406000B06094F8350004282DD12068006820F055
:104070001600216808602068406920F080002168EF
:104080004861206C08B9A06C28B12068006820F055
:1040900008002168086094F85C0000F01F0100E04F
:1040A0003FE03F208840B060012084F8350000BF29
:1040B000002084F8340000BF206D10B12046216D2F
:1040C0008847BDE8F88F2068006800F4802080B140
:1040D0002068006800F4002028B9606C08B320460E
:1040E000616C88471DE0E06BD8B12046E16B8847E2
:1040F00017E02068006800F4807068B920680068E4
:1041000020F0100021680860012084F8350000BF0D
:10411000002084F8340000BFE06B10B12046E16B52
:104120008847606D00287AD0606D00F00100E8B328
:10413000042084F835007949206888424BD07749BB
:1041400018312068884246D074493031206888424E
:1041500041D072494831206888423CD06F49603173
:104160002068884237D06D4978312068884232D043
:104170006A499031206888422DD06849A83120686A
:10418000884228D06449A8392068884223D06249EF
:104190009039206888421ED05F497839206888426B
:1041A00019D05D4960392068884200E040E012D0B3
:1041B00059494839206888420DD05749303920681C
:1041C000884208D0544918392068884203D052499F
:1041D0002068884206D12068006820F0010021682C
:1041E000086005E02068006820F001002168086090
:1041F00000BF0098401C0090504500D905E02068A1
:10420000006800F001000028F3D100BF20680068BA
:1042100000F0010020B1032084F8350003E00DE038
:10422000012084F8350000BF002084F8340000BF6E
:10423000E06C002802D02046E16C8847D9E138497B
:104240002068884222D036491431206888421DD027
:10425000334928312068884218D031493C312068E0
:10426000884213D02E495031206888420ED02C4904
:1042700064312068884209D0294978312068884211
:1042800004D027498C312068884201D1012000E008
:1042900000200028D2D02068056894F85C0000F067
:1042A0001F010420884000EA0900D8B305F004008B
:1042B000C0B394F85C0000F01F0104208840C8F8E7
:1042C000040005F4004080B105F4803030B9A06CE2
:1042D0000028B3D02046A16C88478AE1206C0028D2
:1042E000ACD02046216C884783E105F02000E8BB74
:1042F0000A492068884253D008491831206888420A
:104300004ED0064930312068884249D003494831AF
:104310002068884244D006E0B80402401000024001
:10432000085402584FE0B44960312068884237D0C1
:10433000B14978312068884232D0AF499031206845
:1043400088422DD0AC49A8312068884228D0AB499A
:104350002068884224D0A9491831206888421FD09B
:10436000A6493031206888421AD000E025E0A349F0
:1043700048312068884213D0A049603120688842C3
:104380000ED09E4978312068884209D09B499031EF
:104390002068884204D09949A8312068884206D113
:1043A0002068006820F008002168086005E02068A7
:1043B000006820F0040021680860206C10B32046DB
:1043C000216C884715E194F85C0000F01F01022081
:1043D000884000EA0900E8B305F00200D0B394F881
:1043E0005C0000F01F0102208840C8F8040005F4BA
:1043F000004070B105F4803028B9606C10B12046DF
:10440000616C8847F5E0E06BF0B32046E16B8847CC
:10441000EFE005F02000C0BB7749206888424ED00D
:10442000754918312068884249D073493031206875
:10443000884244D070494831206888423FD06E4954
:104440006031206888423AD06B49783120688842D0
:1044500035D000E04EE068499031206888422ED087
:104460006549A8312068884229D06449206888427B
:1044700025D0624918312068884220D05F49303108
:10448000206888421BD001E06EE02DE05B49483196
:104490002068884213D059496031206888420ED084
:1044A000564978312068884209D0544990312068B3
:1044B000884204D05149A8312068884206D120683A
:1044C000006820F014002168086005E0206800689A
:1044D00020F00A0021680860012084F8350000BF40
:1044E000002084F8340000BFE06BE8B32046E16BA5
:1044F00088477EE094F85C0000F01F0108208840A7
:1045000000EA090080B305F0080068B33A49206862
:1045100088424BD0384918312068884246D0364905
:1045200030312068884241D0334948312068884280
:104530003CD0314960312068884237D02E497831EB
:104540002068884232D02C499031206888422DD092
:104550002949A8312068884228D028492068884203
:1045600024D02649183100E043E0206888421DD05D
:10457000224930312068884218D0204948312068CB
:10458000884213D01D496031206888420ED01B49F3
:1045900078312068884209D01849903120688842D3
:1045A00004D01649A8312068884206D120680068E6
:1045B00020F01C002168086005E02068006820F0F9
:1045C0000E002168086094F85C0000F01F010120D3
:1045D0008840C8F804000120606584F8350000BFF9
:1045E000002084F8340000BFE06C10B12046E16C7C
:1045F000884700BF65E5000010000240100402403B
:104600002DE9F041044601F0E3FE804614B9012093
:10461000BDE8F081FE492068884249D0FC49183144
:104620002068884244D0FA493031206888423FD01F
:10463000F7494831206888423AD0F549603120680E
:10464000884235D0F24978312068884230D0F0492C
:104650009031206888422BD0ED49A83120688842EB
:1046600026D0EC492068884222D0EA4918312068D7
:1046700088421DD0E74930312068884218D0E5498A
:1046800048312068884213D0E2496031206888426E
:104690000ED0E04978312068884209D0DD49903158
:1046A0002068884204D0DB49A8312068884201D1C3
:1046B000012000E00020002873D0606A00B100BF34
:1046C000022084F8350000BF002084F8340000BFC9
:1046D000CF492068884249D0CD49183120688842A6
:1046E00044D0CB493031206888423FD0C849483156
:1046F000206888423AD0C64960312068884235D067
:10470000C34978312068884230D0C149903120684F
:1047100088422BD0BE49A8312068884226D0BD49A6
:104720002068884222D0BB491831206888421DD0B9
:10473000B84930312068884218D0B64948312068DD
:10474000884213D0B3496031206888420ED0B14905
:1047500078312068884209D0AE499031206888427B
:1047600004D0AC49A8312068884206D1206800688E
:1047700020F001002168086005E02068006820F052
:104780000100216808600DE001F022FEA0EB0800A6
:10479000052807D920206065032084F83500012012
:1047A00036E769E02068006800F001000028EBD1DE
:1047B0002068056898480540D4E90201084321694A
:1047C000084361690843A1690843E1690843216A14
:1047D00008430543606A042803D1D4E90B01084368
:1047E00005436068292802D360682E2817D96068BD
:1047F0003F2802D36068422811D96068472802D355
:10480000606848280BD960684F2802D36068522836
:1048100005D96068742804D36068772801D801201E
:1048200000E0002008B145F480152068056020688C
:10483000456925F00705606A0543606A04280DD1C3
:10484000A06A0543E06A48B12046FEF7D7F828B1D0
:1048500040206065012084F83500D9E62068456174
:104860002046FDF7A7FF064694F85C0000F01F0104
:104870003F208840B0609EE068492068884222D08E
:1048800066491431206888421DD064492831206867
:10489000884218D061493C312068884213D05F4972
:1048A0005031206888420ED05C49643120688842CB
:1048B00009D05A4978312068884204D057498C3150
:1048C0002068884201D1012000E00020E0B3534974
:1048D0002068884222D051491431206888421DD076
:1048E0004E4928312068884218D04C493C31206814
:1048F000884213D049495031206888420ED0474938
:1049000064312068884209D044497831206888425F
:1049100004D042498C312068884201D1012000E056
:10492000002000B100BF022084F8350000BF002045
:1049300084F8340000BF2068056839480540A06845
:10494000402802D1102106E02EE0A068802801D185
:10495000C10100E00021E06841EAD001206941EA9C
:10496000D001606941EAD001A06941EAD001E06963
:1049700041EAD001206A41EA101005432068056031
:1049800026492068401A1421B0FBF1F08000E06550
:104990002046FDF70FFF074694F85C0000F01F016A
:1049A00001208840786006E040206065032084F89C
:1049B000350001202CE61649206888427AD0144937
:1049C00018312068884275D01149303120688842FA
:1049D00070D00F494831206888426BD00C49603153
:1049E0002068884266D00A4978312068884261D0C0
:1049F00007499031206888425CD00549A831206879
:104A0000884257D003492068884253D0014909E0C1
:104A100010000240100402403F8010FE085402586B
:104A20000F00FEFF18312068884243D037492068C4
:104A300088423FD035491831206888423AD03349FE
:104A400030312068884235D030494831206888426A
:104A500030D02E496031206888422BD02B497831E4
:104A60002068884226D02A492068884222D02849D6
:104A70001431206888421DD0254928312068884299
:104A800018D023493C312068884213D02049503146
:104A9000206888420ED01E4964312068884209D0BF
:104AA0001B4978312068884204D019498C3120682C
:104AB000884201D1012000E0002000B32046FDF72C
:104AC000EFFEA068802801D1002060602079216E6F
:104AD0000860D4E919104860606860B1606808280F
:104AE00009D82046FDF73EFF0020E16E0860D4E9BA
:104AF0001C10486003E00020E0662067606700202B
:104B00006065012084F83500002081E54004024002
:104B1000085402582DE9F04104460D4616461F463A
:104B20004FF0000814B90120BDE8F08100BF94F8EF
:104B30003400012801D10220F6E7012084F8340076
:104B400000BF94F8350001287ED1022084F835009A
:104B500000206065E4492068884249D0E249183164
:104B60002068884244D0E0493031206888423FD0F4
:104B7000DD494831206888423AD0DB4960312068FD
:104B8000884235D0D84978312068884230D0D6491B
:104B90009031206888422BD0D349A83120688842C0
:104BA00026D0D2492068884222D0D04918312068C6
:104BB00088421DD0CD4930312068884218D0CB4979
:104BC00048312068884213D0C84960312068884243
:104BD0000ED0C64978312068884209D0C349903147
:104BE0002068884204D0C149A8312068884206D193
:104BF0002068006820F001002168086005E0206856
:104C0000006820F00100216808603B4632462946D2
:104C10002046FDF74BFFB449206888424BD0B2498B
:104C200018312068884246D0AF4930312068884228
:104C300041D0AD494831206888423CD0AA49603112
:104C40002068884237D000E042E1A74978312068E7
:104C5000884230D0A4499031206888422BD0A249A4
:104C6000A8312068884226D0A0492068884222D0F6
:104C70009E491831206888421DD09C4930312068F7
:104C8000884218D0994948312068884213D0974902
:104C90006031206888420ED094497831206888427B
:104CA00009D0924990312068884204D08F49A831B8
:104CB0002068884201D1012000E0002080B12068F6
:104CC000006820F01E0040F0160021680860206C8B
:104CD000B0B12068006840F00800216808600FE06B
:104CE0002068006820F00E0040F00A00216808608B
:104CF000206C28B12068006840F00400216808603A
:104D000079492068884270D07749183120688842F4
:104D10006BD0754930312068884266D0724948317D
:104D20002068884261D070496031206888425CD038
:104D30006D4978312068884257D06B49903120689E
:104D4000884252D06849A831206888424DD06749CE
:104D50002068884249D0654918312068884244D08B
:104D600062493031206888423FD06049483120682C
:104D700088423AD05D4960312068884235D05B492D
:104D800078312068884230D0584990312068884274
:104D90002BD05649A8312068884226D05449206833
:104DA000884222D052491431206888421DD050498F
:104DB00028312068884218D04D493C31206888420B
:104DC00013D04B495031206888420ED04849643195
:104DD0002068884209D0464978312068884204D04A
:104DE00043498C312068884201D1012000E0002035
:104DF00090B1206E006800F4803028B1206E006809
:104E000040F48070216E0860E06E28B1E06E0068AA
:104E100040F48070E16E086033492068884249D0D0
:104E2000314918312068884244D02F4930312068F8
:104E300088423FD02C494831206888423AD02A49DC
:104E400060312068884235D027497831206888420F
:104E500030D025499031206888422BD02249A83192
:104E60002068884226D021492068884222D01F49E4
:104E70001831206888421DD01C4930312068884292
:104E800018D01A4948312068884213D01749603138
:104E9000206888420ED0154978312068884209D0B0
:104EA000124990312068884204D01049A831206806
:104EB000884206D12068006840F00100216808603F
:104EC00010E02068006840F001002168086009E0F7
:104ED0004FF40060606500BF002084F8340000BF1C
:104EE0004FF0010840461FE6100002401004024047
:104EF0000854025870B5044601F06AFA0646254681
:104F0000681C10B104480078054400BF01F060FA45
:104F1000801BA842FAD370BDEC03002030B50346D5
:104F200093F89840012C01D0022C3ED11868806D76
:104F3000084030B91868C06D40F001001D68E86590
:104F40000EE01868806D0840884206D11868C06D70
:104F500040F002001D68E86502E003201D68E86576
:104F600001F4007030B11868D0F8E00010431D68FB
:104F7000C5F8E00001F4806030B11868D0F8E400B2
:104F800010431D68C5F8E40000BF1868406D0B4D64
:104F90000D4028431D6868650948006840EA917023
:104FA000074D286000BF002030BDD3F89C0040F0C2
:104FB0000200C3F89C000120F6E70000FFFFCF3F8E
:104FC00014A800402DE9F04104460E4617467068CB
:104FD00000B900E000BF94F89800022832D12068A0
:104FE000D0F8C00000F07C5040B9D4F89C0040F0EC
:104FF0002000C4F89C000120BDE8F0812068D0F8B2
:10500000C40000F4001038B1D4F89C0040F40070E3
:10501000C4F89C000120EFE72068D0F8C400C0F37A
:1050200004452B463A4631462046FEF7B1F80120AA
:10503000A8402168C1F8D0000120A840C4F894001D
:105040000020D9E7D4F89C0040F00800C4F89C0088
:105050000120D1E77047F0B5024692F89860012E22
:1050600001D0022E43D1C868072800D100BF0868CC
:1050700018BBC868072800D000BFC86807280BD134
:10508000088A4FF0605747EA0040CF6940EA07209E
:105090008F6940EA07040AE0087A80070F7B40EA3C
:1050A000C7600F8A40EA07404F6940EA0704D76E9D
:1050B000486807EB80031C6017E0C868072800D029
:1050C00000BF0F7B086940EA4774C868072801D110
:1050D0008D6903E00F7A486940EA8775176F486861
:1050E00007EBC0031C601B1D1D600020F0BDD2F843
:1050F0009C0040F00200C2F89C000120F6E770B569
:105100000446049D94F8980001280AD1080140EA59
:10511000820040EA430028432668C6F88000002049
:1051200070BDD4F89C0040F00400C4F89C0001203D
:10513000F6E77047704700002DE9F04304460D463E
:105140009C46002394F89880B8F1020F74D1402D4A
:1051500038D12068D0F8A00000F4FE0040B9D4F89F
:105160009C0040F02000C4F89C000120BDE8F083C2
:105170002068D0F8A40000F07F0038B9D4F89C0073
:1051800040F48070C4F89C000120EFE72068D0F85C
:10519000A400C0F3006040B12068D0F8A0004FF038
:1051A0000109B9EBD07F00D101232068D0F8A40019
:1051B000C0F305200344606C5843D4F8749009EBA5
:1051C00080014BE0412D38D12068D0F8B00000F4C8
:1051D000FE0038B9D4F89C0040F02000C4F89C00D0
:1051E0000120C3E72068D0F8B40000F07F0038B990
:1051F000D4F89C0040F48070C4F89C000120B5E70E
:105200002068D0F8B400C0F3006040B12068D0F846
:10521000B0004FF00109B9EBD07F00D10123206825
:10522000D0F8B400C0F305200344E06C5843D4F830
:10523000789009EB800111E06DE0206DA84207D85D
:10524000D4F89C0040F02000C4F89C0001208DE7B9
:10525000606D6843D4F87C9009EB8001086800F029
:1052600080405060506820B90868C0F38A401060E0
:1052700003E0086820F060401060086800F000500B
:105280009060086800F000401061091D088880B235
:10529000D0610868C0F30340D060086800F4801053
:1052A0005061086800F4001090610868C0F306605F
:1052B00010620868C00F5062091D0F46002603E007
:1052C000B85D0CF80600761CDFF85C90D06819F821
:1052D0000000B042F4D8402D03D12068C0F8A830B7
:1052E00017E0412D03D12068C0F8B83011E0202D1F
:1052F00006D20120A840D4F80090C9F8980008E030
:1053000005F01F09012000FA09F0D4F80090C9F84F
:105310009C0000202AE7D4F89C0040F00800C4F864
:105320009C00012022E7000030B601087047000011
:105330002DE9F04F8DB00446EF4800688707EE482E
:10534000001D006807EA80772068006D00F470484F
:105350002068406D00EA08082068006D00F00F0921
:105360002068406D00EA09092068006D00F0F00A2D
:105370002068406D00EA0A0A2068006D00F0715B49
:105380002068406D00EA0B0B2068006D00F0607033
:105390000C902068406D0C9908400C902068456D79
:1053A0002068066DC5F3002070B1C6F3002058B127
:1053B00000BF4FF48070216808650020CE49086066
:1053C00000BF2046FFF7B2FFC5F38020C8B1C6F387
:1053D0008020B0B12068D0F8DC000A902068D0F8B6
:1053E000E4000A9908400A9000BF4FF480602168E9
:1053F00008650020C049086000BF20460A9900F0F7
:10540000E4FE67B100BFBD48384021680865B80FA9
:10541000B949086000BF39462046FFF71BFEB8F1C6
:10542000000F0ED000BFB54808EA000021680865EB
:105430004FEA9870B049086000BF4146204600F02E
:10544000C6FEB9F1000F0ED000BFAC4809EA00005B
:10545000216808654FEA9970A749086000BF49466E
:10546000204600F09BFBBAF1000F0ED000BFA3480E
:105470000AEA0000216808654FEA9A709E490860B0
:1054800000BF5146204600F07FFEC5F3C02070B13A
:10549000C6F3C02058B100BF4FF400602168086512
:1054A00000209549086000BF204600F091FEC5F33A
:1054B0004020C8B1C6F34020B0B12068D0F8D80071
:1054C0000B902068D0F8E0000B9908400B9000BFCB
:1054D0004FF400702168086500208749086000BF0C
:1054E00020460B9900F072FEC5F3C04070B1C6F3C0
:1054F000C04058B100BF4FF400202168086500206B
:105500007D49086000BF204600F046FBC5F300401F
:1055100070B1C6F3004058B100BF4FF4803021682D
:10552000086500207449086000BF204600F04CFE6A
:10553000C5F3804070B1C6F3804058B100BF4FF44E
:1055400080202168086500206B49086000BF204664
:1055500000F039FEC5F3404088B1C6F3404070B159
:1055600000BF4FF4003021680865002062490860E0
:1055700000BFD4F89C0040F08000C4F89C000C9858
:1055800070B100BF5D490C980840216808650C980F
:10559000800F5949086000BF20460C99FFF7CAFDEB
:1055A000BBF1000F10D000BF54480BEA0000216887
:1055B00008654FEA9B705049086000BFD4F89C0012
:1055C00040EA0B00C4F89C004D49206888427DD118
:1055D0006068806800F00300002877D06068006A87
:1055E00000F00F0009906068406A0999084009902E
:1055F0006068006A00F0300008906068406A0899AE
:10560000084008906068006A00F4C0700790606805
:10561000406A0799084007906068006A00F4FC40FF
:1056200006906068406A0699084006906068006AC3
:1056300000F4F02005906068406A059908400590E4
:105640006068406A02906068006A0190099830B111
:105650000998616808622046099900F0B1FD089830
:1056600030B10898616808622046089900F0AAFDE8
:105670000298C0F38010A0B10198C0F3801080B1EF
:105680006068C06B000C04906068C06B00F03F0065
:1056900003904020616808622046DDE9032100F0A4
:1056A00090FD079830B10798616808622046079915
:1056B00000F085FD069840B1069861680862D4F84C
:1056C0009C0006990843C4F89C0000E00AE0059895
:1056D00040B1059861680862D4F89C0005990843B8
:1056E000C4F89C00D4F89C0010B12046FFF721FDBF
:1056F0000DB0BDE8F08F000010A80040FFFFCF3FC5
:1057000000A0004070B594B004464C22B34901A8F3
:10571000FAF7EBFF14B9012014B070BDB04920684E
:10572000884203D1206800F580706060A068B0F501
:10573000407F00D100BF206C00B100BFA06C00B161
:1057400000BF206D00B100BF206E00B100BFD4E9E2
:105750001710084400B100BF94F8980028B9002041
:1057600084F89900204600F03DF92068806920F017
:1057700010002168886100F02BFE05460EE000F065
:1057800027FE401B0A2809D99834606840F00100C0
:105790006060032004F898090120BDE72068806953
:1057A00000F008000828EAD02068806940F0010075
:1057B0002168886100F00CFE05460EE000F008FE4E
:1057C000401B0A2809D99834606840F001006060E5
:1057D000032004F8980901209EE72068806900F002
:1057E00001000028EAD02068806940F002002168AA
:1057F0008861207C012806D12068806920F0400063
:105800002168886105E02068806940F040002168D7
:105810008861607C012806D12068806940F480405E
:105820002168886105E02068806920F48040216853
:105830008861A07C012806D12068806920F480500E
:105840002168886105E02068806940F48050216803
:1058500088612068806920F44070A168084321684D
:1058600088612068806920F0A40021688861206830
:10587000006920F0100021680861E068012806D165
:105880002068806940F004002168886120E0E068B9
:10589000F0B1E068022815D02068806940F08000EF
:1058A000216888612068006940F010002168086163
:1058B000E06803280CD12068806940F0200021684E
:1058C000886105E02068806940F0200021688861D7
:1058D000207E401E4106E069401E41EA0020216A08
:1058E000491E0843A18A491E40EA01402168C86157
:1058F000A068B0F5407F0FD1A06A401EE16A491E42
:1059000040EA0121206B401E41EA0011A08C401E9C
:1059100041EA00402168C860206E38B12068D0F8A4
:10592000C000616E08432168C1F8C000D4E91710B7
:10593000084460B12068D0F8C80020F0070001AA30
:10594000A16E52F8211008432168C1F8C800206CEC
:1059500060B12068D0F8BC0020F0070001AA616C9B
:1059600052F8211008432168C1F8BC00A06C68B14E
:105970002068D0F8BC0020F0700101AAE06C52F859
:10598000200041EA00102168C1F8BC00206D68B118
:105990002068D0F8BC0020F4E06101AA606D52F8E4
:1059A000200041EA00202168C1F8BC000C492068B1
:1059B000884205D16068806820F0030061688860D3
:1059C000002044F8940FA06001202071943C2046F0
:1059D000FDF7CEFA064630469EE6000040B60108C6
:1059E00000A0004010B586B00446142101A8FAF7C3
:1059F000D8FE6249206888423CD161480068401C5A
:105A00005F4908600846006801280DD100BF5D4865
:105A1000006840F480705B4908600846006800F444
:105A20008070009000BF00BF00BF56480C3800686F
:105A300040F0080053490C3908600846006800F03F
:105A40000800009000BF00BF0320019002200290D8
:105A50000020039004900920059001A94A4800F015
:105A6000B9FB00220521132000F070FD132000F087
:105A700059FD81E04549206888423CD14048006892
:105A8000401C3F4908600846006801280DD100BF4E
:105A90003C48006840F480703A4908600846006855
:105AA00000F48070009000BF00BF00BF35480C3884
:105AB000006840F0020033490C390860084600686D
:105AC00000F00200009000BF00BF602001900220A3
:105AD00002900020039004900920059001A92C4811
