:020000040800F2
:10000000A8F00020290300089B830008816A0008EB
:1000100099830008C5120008C9E900080000000023
:10002000000000000000000000000000690200085D
:100030009323000800000000C5020008B3C00008B8
:100040004303000843030008430300084303000878
:1000500043030008430300089523000843030008F6
:1000600043030008A3230008A92300084303000852
:100070004303000843030008430300084303000848
:100080004303000843030008430300084303000838
:10009000C91200084303000843030008AF23000807
:1000A0004303000843030008430300084303000818
:1000B0004303000843030008430300084303000808
:1000C00043030008430300084303000843030008F8
:1000D00043030008D9C50008430300081DC70008F2
:1000E0009B23000843030008430300084303000860
:1000F00043030008430300084303000805190008F0
:1001000043030008430300084303000843030008B7
:1001100043030008430300084303000843030008A7
:1001200043030008811900088D19000843030008E3
:100130004303000843030008430300084303000887
:10014000D512000843030008430300089D830008FC
:1001500025220008312200083D22000885C8000839
:100160004303000843030008430300084303000857
:100170004303000843030008430300080000000095
:10018000430300084303000800F002F800F05CF8A5
:100190000AA090E8000C82448344AAF10107DA45E2
:1001A00001D100F051F8AFF2090EBAE80F0013F0D8
:1001B000010F18BFFB1A43F001031847D096010046
:1001C000F09601000A444FF0000C10F8013B13F0C8
:1001D000070408BF10F8014B1D1108BF10F8015BA0
:1001E000641E05D010F8016B641E01F8016BF9D193
:1001F00013F0080F1EBF10F8014BAD1C0C1B09D1EA
:100200006D1E58BF01F801CBFAD505E014F8016B5B
:1002100001F8016B6D1EF9D59142D6D370470000ED
:100220000023002400250026103A28BF78C1FBD8FF
:10023000520728BF30C148BF0B6070471FB518F088
:1002400025FB1FBD10B510BD00F0BDFA1146FFF72C
:10025000F5FF13F071FD00F0DBFA03B4FFF7F2FFD6
:1002600003BC00F0EBFA00002C4B19680868B0E8FA
:10027000F04F80F30988BFF36F8F4FF0000080F3D9
:10028000118870470000000008480068006880F38B
:1002900008884FF0000080F3148862B661B6BFF39F
:1002A0004F8FBFF36F8F00DF00BF00BF08ED00E08E
:1002B000DFF80C00016841F470010160704700BF75
:1002C00088ED00E0EFF30980BFF36F8F134B1A68DE
:1002D0001EF0100F08BF20ED108A20E9F04F1060CB
:1002E00009B44FF0500080F31188BFF34F8FBFF374
:1002F0006F8F16F0BDF84FF0000080F3118809BC35
:1003000019680868B0E8F04F1EF0100F08BFB0EC95
:10031000108A80F30988BFF36F8F7047A002002016
:10032000EFF30580704700000948804709480047FF
:10033000FEE7FEE7FEE7FEE7FEE7FEE7FEE7FEE795
:10034000FEE7FEE704480549054A064B70470000F2
:1003500065C1000889010008A8B00020A8F00020AD
:10036000A8D00020A8D000209FED1A1AF5EE000AB0
:1003700040EE010ABDEEE00AF5EEC00A10EE100AEA
:10038000F1EE10FA38BF401E00EE100A1349F7EEE6
:10039000001AB8EEC00A30EEC00ADFED0F0A20EEF8
:1003A000200AFCEEC00A10EE900AC0F3080000EE2E
:1003B000900A01EB8000F8EE600A90ED011A70EEF1
:1003C000600A90ED000A71EEE01A21EE800A00EE5C
:1003D000810A704783F9223E00000044888F01089B
:1003E000DFED190AB5EEC00A60EE200ABDEEE01A94
:1003F00011EE100AF1EE10FA38BF401E00EE100A9E
:100400001349F7EE001AB8EEC00A30EEC00ADFED6D
:100410000F0A60EE200ABCEEE00A10EE100AC0F3EC
:10042000080000EE100A01EB8000B8EE400A90EDE3
:10043000011A70EEC00A90ED000A71EEE01A21EE8A
:10044000800A00EE810A704783F9223E00000044D2
:10045000888F010853EA020C00F069802DE9F04B07
:100460004FF00006002B1FBFB3FA83F503FA05F423
:1004700024FA05F65E4012BF1643B2FA82F502FA7C
:1004800005F4C5F120051EBF22FA05FC44EA0C0460
:10049000203556EA044C4FEA144418BF641C4FF050
:1004A00000084FF00009904271EB030C39D300298A
:1004B00019BFB1FA81F701FA07F6B0FA80F700FA2E
:1004C00007F6C7F120071EBF20FA07FC46EA0C0614
:1004D0002037B6FBF4FCA7EB0507103F07F01F0B16
:1004E000CBF120060CFA0BFB2CFA06F644BFB34600
:1004F0000026202FA4BF5E464FF0000B5BEA060CDF
:1005000008BF4FF0010B19EB0B09ABFB027C48EB6A
:100510000608C01B06FB02CC0BFB03CC71EB0C01E5
:10052000C1E70B46024641464846BDE8F08B13B58D
:100530004FF000004FF00001AFF30080BDE81C4019
:10054000704740EA010310B59B070FD1042A0DD371
:1005500010C808C9121F9C42F8D020BA19BA8842A4
:1005600001D9012010BD4FF0FF3010BD1AB1D307E3
:1005700003D0521C07E0002010BD10F8013B11F819
:10058000014B1B1B07D110F8013B11F8014B1B1B42
:1005900001D1921EF1D1184610BD10B5431C02E0E6
:1005A00010F8011B71B18107FAD14FF0013202C876
:1005B0008C1A8C4314EAC211F9D0C01A0A0603D06F
:1005C000C01E10BDC01A10BD0A0401D0801E10BD8F
:1005D0000902FCD0401E10BD032A40F2308010F00A
:1005E000030C00F0158011F8013BBCF1020F6244CE
:1005F00098BF11F801CB00F8013B38BF11F8013B5F
:10060000A2F1040298BF00F801CB38BF00F8013B0B
:1006100011F0030300F02580083AC0F0088051F87B
:10062000043B083A51F804CBA0E80810F5E7121D86
:100630005CBF51F8043B40F8043BAFF30080D207A5
:1006400024BF11F8013B11F801CB48BF11F8012B71
:1006500024BF00F8013B00F801CB48BF00F8012B94
:10066000704710B5203AC0F00B80B1E81850203A1E
:10067000A0E81850B1E81850A0E81850BFF4F5AF42
:100680005FEA027C24BFB1E81850A0E8185044BFCC
:1006900018C918C0BDE810405FEA827C24BF51F839
:1006A000043B40F8043B08BF7047D20728BF31F82D
:1006B000023B48BF11F8012B28BF20F8023B48BF7E
:1006C00000F8012B704702F0FF0343EA032242EADD
:1006D000024200F002B84FF000020429C0F012807C
:1006E00010F0030C00F01B80CCF1040CBCF1020FE5
:1006F00018BF00F8012BA8BF20F8022BA1EB0C01BA
:1007000000F00DB85FEAC17C24BF00F8012B00F8AF
:10071000012B48BF00F8012B70474FF0000200B5D5
:10072000134694469646203922BFA0E80C50A0E814
:100730000C50B1F12001BFF4F7AF090728BFA0E8C2
:100740000C5048BF0CC05DF804EB890028BF40F88E
:10075000042B08BF704748BF20F8022B11F0804FD0
:1007600018BF00F8012B704770477047704710B5ED
:1007700000F00CF8006810BD10B5044600F006F853
:10078000046010BD0048704748B000200048704722
:1007900048B000201FB584B000200A9C06AB04AA14
:1007A00002A90094AFF3008018B1DDE9020108B09E
:1007B00010BD0348204000F039F800200146F6E75C
:1007C0000000207C70477546FFF7DCFFAE46050051
:1007D0006946534620F00700854618B020B5FFF75C
:1007E000B1FDBDE820404FF000064FF000074FF08C
:1007F00000084FF0000B21F00701AC46ACE8C0093F
:10080000ACE8C009ACE8C009ACE8C0098D46704747
:1008100010B50446AFF300802046BDE81040FFF756
:100820001CBD002801D000F009B8704710B500F0D9
:1008300025F8BDE81040FFF7F4BF0000014918207B
:10084000ABBEFEE72600020070B505460C460A2046
:1008500000E06D1C00F068F835B128780028F8D168
:1008600002E0641C00F060F814B120780028F8D190
:10087000BDE870400A2000F057B8000010B502280B
:1008800003D0410103D50DA112E0002010BD0101EC
:1008900001D50FA10CE0C10001D511A108E0810034
:1008A00001D512A104E0400001D513A100E0002110
:1008B00015A0FFF7C9FF012010BD0000496E766149
:1008C0006C6964204F7065726174696F6E0000001E
:1008D000446976696465204279205A65726F000028
:1008E0004F766572666C6F7700000000556E646528
:1008F00072666C6F77000000496E657861637420E2
:10090000526573756C7400005349474650453A2050
:1009100041726974686D6574696320657863657098
:1009200074696F6E3A20000008B569468DF80000C2
:100930000320ABBE08BD00004A494A6822F4403299
:100940004A604A6843681A434A6001684A6822F468
:1009500080724A6001684A68036942EA03224A6079
:1009600001684A6822F040724A6001684A688368F8
:100970001A434A6001688A6822F400628A6001684A
:100980008A68C3681A438A60816A6FF07062D142D4
:1009900014D001688A6822F070628A6001688A68EF
:1009A000836A1A438A6001688A6822F040528A602A
:1009B00001688A68C36A1A438A6009E001688A6824
:1009C00022F070628A6001688A6822F040528A6070
:1009D00001688A6822F002028A6001688A68037EE0
:1009E00042EA43028A6090F8201089B101684A689F
:1009F00042F400624A6001684A6822F460424A6038
:100A000001684A68436A5B1E42EA43324A6004E076
:100A100001684A6822F400624A600168CA6A22F4E6
:100A20007002CA620168CA6A838B5B1E42EA035283
:100A3000CA6201688A6822F400728A6001688A6862
:100A400090F8303042EA43228A6001688A6822F4D2
:100A500080628A6001688A68406942EA8020886012
:100A6000704700000023014010B52DED028BB0EE61
:100A7000408AB0EE480A0EF047FBBDEC028B10BD79
:100A800010B52DED028BB0EE408AF0EE608AF0EEEC
:100A9000680AB0EE480A0EF0CDFBBDEC028B10BD2B
:100AA00010B52DED028BB0EE408AB0EE480AFFF78C
:100AB0005BFCBDEC028B10BDF0EE400AF5EEC00A07
:100AC000F1EE10FA02DDB0EE600A7047B1EE600A96
:100AD000FBE7000018B19FED020A80ED000A7047A5
:100AE0000000000018B1B3EE060A80ED000A70475E
:100AF00070B52DED0C8B84B006460C4615469FED67
:100B0000990AF0EE408A9FED970AB0EE409A9FED69
:100B1000950AF0EE40BA9FED930AF0EE409A9FEDF1
:100B2000910AB0EE40AA0EB104B11DB904B0BDECFB
:100B30000C8B70BD8C48FFF7CDFF8C48FFF7D2FFC0
:100B40008A48D0ED000A9FED8A1A60EE810AB0EE65
:100B5000600A00F02DF9F0EE408A28EEA80AF0EEC7
:100B6000408A8248D0ED000AB0EE001A60EE810A99
:100B70009FED7F1A60EE810AB0EE600A00F018F96E
:100B8000B0EE409A29EE090AB0EE409ADFED790AFC
:100B9000B7EE000A00EEA80ADFED770A00EEC90AF8
:100BA000DFED760A20EE200A754880ED000A6E48D7
:100BB00090ED000ADFED730A80EE201AB7EE000A0E
:100BC00031EE000A20EE000A6D48D0ED000A80EEFA
:100BD000801A6D4880ED001A94ED000AB5EEC00A47
:100BE000F1EE10FA0DD194ED010AB5EEC00AF1EE66
:100BF00010FA06D194ED020AB5EEC00AF1EE10FA31
:100C000046D09FED580AB0EE408A00200190029035
:100C10000390D4ED000A60EEA00A94ED011AD4ED21
:100C2000011A41EE210A94ED021AD4ED021A41EEA6
:100C3000210AB0EE600A00F0A9F8B0EE408A94ED07
:100C4000000A20EE080A8DED010A94ED010A20EE5B
:100C5000080A8DED020A94ED020A20EE080A8DEDD5
:100C6000030ADDED010AF1EE600AB0EE600AFFF75B
:100C7000FBFEF0EE409A9DED031AF0EE410A9DED69
:100C8000021AB0EE410AFFF7FBFEB0EE40AA07E001
:100C90009FED340AF0EE409A9FED320AB0EE40AA82
:100CA00095ED000AB5EEC00AF1EE10FA0DD195ED02
:100CB000010AB5EEC00AF1EE10FA06D195ED020A6E
:100CC000B5EEC00AF1EE10FA3CD0B0EE690A00F0C1
:100CD0006FF8B0EE408AB0EE690AFFF7E1FEB0EEC1
:100CE00040DAB0EE4A0A00F063F8F0EE40AAB0EE47
:100CF0004A0AFFF7D5FEB0EE40BA28EE2A0AD5ED33
:100D0000010A20EE200AD5ED000A0DEE200A68EE59
:100D10000B0A95ED021A00EE810AB0EE40CA95ED7D
:100D2000010A20EE0B0AD5ED020A0AEEE00AF0EE07
:100D300040CAF0EE6C0AB0EE4C0AFFF7A1FEF0EEEE
:100D400040BA03E09FED070AF0EE40BAB0EE4A1A4F
:100D5000F0EE690AB0EE6B0A30460FF0E3F800BF20
:100D6000E4E6000000000000C8030020CC030020DF
:100D700035FA8E3CC1BFAD3B9DF8C5362F7C1C417A
:100D8000D0030020506CC24AD403002010B52DEDD2
:100D9000028BB0EE408AB0EE480A0EF01BFDB7EEB3
:100DA000001AC1EE000AB0EE600ABDEC028B10BD65
:100DB00010B52DED028BB0EE408AB0EE480AFFF779
:100DC0000FFBBDEC028B10BD2DE9F0412DED028B28
:100DD0009AB00546B0EE408A0E4617469846002067
:100DE0001790189019901490159016904DB146B127
:100DF0003FB1B8F1000F04D0B5EEC08AF1EE10FAA1
:100E000005D100201AB0BDEC028BBDE8F08196ED53
:100E1000000A8DED170A96ED010A8DED180A96ED80
:100E2000020A8DED190A97ED000A8DED140A97ED6F
:100E3000010A8DED150A97ED020A8DED160A17AA23
:100E400014A928460EF0C0FE402104A8FFF765FC57
:100E500000200090019002900390002417A904A89C
:100E600014F0D4FD00BF30E004A800EB041090EDB6
:100E7000000AD5ED000A20EE200A04A800EB0410B9
:100E8000D0ED010A95ED011A00EE810A04A800EBED
:100E90000410D0ED020A95ED021A00EE810A04A8B2
:100EA00000EB0410D0ED030A95ED031A00EE810A61
:100EB00020EE080AF0EE000A80EE201A684600EBE9
:100EC000840080ED001A601CC4B2042CCCDB00242A
:100ED00010E005EB840090ED000A684600EB84000A
:100EE000D0ED000A30EE200A05EB840080ED000A08
:100EF000601CC4B2042CECDB284613F0D7FC0120A4
:100F000080E7000010B501221021024802F09BFF8B
:100F100010BD00000000024010B500221021024860
:100F200002F091FF10BD0000000002407047000079
:100F300010B501221146024802F085FF10BD0000E5
:100F40000004024010B500220121024802F07BFF9C
:100F500010BD00000004024010B543781B021BB214
:100F60000478234300EE103AB8EEC01A1C4BD3EDC0
:100F7000001A21EE211A81ED001AC3781B021BB260
:100F80008478234300EE103AB8EEC01A144BD3ED28
:100F9000001A21EE211A81ED011A43791B021BB2BE
:100FA0000479234300EE103AB8EEC01A0C4BD3ED8F
:100FB000001A21EE211A81ED021A037A1B04C4796A
:100FC00043EA04238479234300EE903AB8EE601A92
:100FD000DFED041A21EE211A82ED001A10BD000087
:100FE000C401002000401C42704710B50446204652
:100FF00012F0F2FE10BD10B5044620460FF052FC70
:1010000010BD00004278120212B203781A4300EEBB
:10101000102AF8EEC00A144A92ED001A60EE810A16
:10102000C1ED000AC278120212B283781A4300EEB0
:10103000102AF8EEC00A0C4A92ED001A60EE810AFE
:10104000C1ED010A4279120212B203791A4300EE8D
:10105000102AF8EEC00A044A92ED001A60EE810AE6
:10106000C1ED020A70470000C801002010B500243D
:10107000FFF75CFFFFF7B8FF0FF0CEF810B144F0B8
:10108000800402E00FF02EF804430FF0BDFA10B117
:1010900044F0400402E00FF03DFA0443204610BD46
:1010A0002DE9FC4105460E461746002000900190B0
:1010B000FFF732FF922000F0D1F806226946122095
:1010C00000F0ACF8FFF71EFF9DF80100000200B22F
:1010D0009DF8001040EA010400EE104AB8EEC00A84
:1010E0004C48D0ED000A20EE200A86ED000A9DF85B
:1010F0000300000200B29DF8021040EA010400EE75
:10110000104AB8EEC00A4348D0ED000A20EE200A8B
:1011100086ED010A9DF80500000200B29DF804105A
:1011200040EA010400EE104AB8EEC00A3948D0ED9A
:10113000000A20EE200A86ED020AFFF703FF0822CC
:101140006946002000F06AF8FFF7F2FE9DF8000003
:101150000F2838D19DF80300000200B29DF802105C
:1011600040EA010400EE104AB8EEC00A2A48D0ED69
:10117000000A20EE200A85ED000A9DF80500000215
:1011800000B29DF8041040EA010400EE104AB8EEE7
:10119000C00A2148D0ED000A20EE200A85ED010AA0
:1011A0009DF80700000200B29DF8061040EA010415
:1011B00000EE104AB8EEC00A1748D0ED000A20EE43
:1011C000200A85ED020AFFF7A7FEA22000F046F8EC
:1011D00002226946222000F021F8FFF793FE9DF8D5
:1011E0000000C0009DF8011040EA6114B4F5806F62
:1011F00002DBA4F5006004B200EE104AF8EEC00A6B
:10120000B4EE001AB3EE070A00EE810A87ED000A79
:10121000BDE8FC81C4010020C801002070B506466D
:101220000C46154646F0800000F018F806E0552000
:1012300000F014F82070641C681EC5B2002DF6D1B1
:1012400070BD70B504460D4644F0800000F006F80D
:10125000552000F003F8287070BD000001B582B081
:101260004FF47A70012301AA02A90090024804F009
:10127000C9FD9DF804000EBDB021002010B5024646
:101280001378DB00547843EA6410B0F5806F02DB1A
:10129000A0F5006318B200EE100AF8EEC00AB4EE32
:1012A000001AB3EE070A00EE810A81ED000A10BDB4
:1012B00070B505460C462846FFF7D0FF2046FFF7DD
:1012C000CDFF70BDFEE70000014801F0BCBC00008E
:1012D000D41F0020014801F0B6BC0000FC1F002014
:1012E00038B51048B0F8FE43B0F8FC5361200E4901
:1012F000086000208860C8600820086101200B4950
:1013000008704C70200A8870CD70280A087100207F
:1013100048718871C8716B460A460349044801F058
:10132000C5FA38BDF0030020841700208801002092
:10133000D41F002038B5264890EDFE0ADFED250ABF
:1013400020EE200ABDEEC00A10EE104A812022498C
:10135000086000208860C860082008611C4890ED83
:10136000F90AF2EE040A20EE200ABDEEC00A10EEE1
:10137000100A1A490870164890EDFA0AF2EE040AAB
:1013800020EE200ABDEEC00A10EE100A4870104888
:1013900090EDFC0ADFED120A20EE200ABDEEC00A35
:1013A00010EE100A88700A4890F8F403C8700848D4
:1013B00090F8EC030871200E4871200C8871200A07
:1013C000C8716B460A460449064801F06FFA38BDF9
:1013D000F0030020002474496C17002080010020D5
:1013E0000000C842D41F002008B5822028490860A8
:1013F00000208860C86008200861264890F8FE0335
:10140000000225490870234890F8FE0348702148DF
:1014100090F8FC03000288701E4890F8FC03C87026
:101420001E4890ED080ADFED1E0A20EE200ABDEEF0
:10143000C00A10EE100A0871184890ED070AF2EE83
:10144000040A20EE200ABDEEC00A10EE100A487110
:10145000124890ED0A0ADFED120A20EE200ABDEED6
:10146000C00A10EE100A88710C4890ED090AF2EEDD
:10147000040A20EE200ABDEEC00A10EE100AC87160
:101480006B460A460249074801F010FA08BD000001
:101490006C170020F003002080010020D4070020FA
:1014A0000000C842D41F002038B505460C4640F263
:1014B000FF100D49086000208860C860082008619E
:1014C000280A0A4908704D70200A8870CC700020E4
:1014D000087148718871C8716B460A460249044810
:1014E00001F0E4F938BD0000541700207801002015
:1014F000FC1F002010B52DED028B82B0B0EE408AAB
:10150000B2EE041AFAEE040AB0EE480A00F02CFF1C
:10151000B0EE408A0C20B2EE041AFAEE040AB0EEE5
:10152000480A00F0EAFE044606200E490860002042
:101530008860C8600820086100200B490870487066
:101540008870C8700871487120128871CC7101AB25
:101550000A460449054801F0A9F902B0BDEC028B26
:1015600010BD00002417002068010020FC1F00208F
:1015700010B52DED028B82B0B0EE408AB2EE041AA7
:10158000FAEE040AB0EE480A00F0EEFEB0EE408A31
:101590000C20B2EE041AFAEE040AB0EE480A00F08B
:1015A000ACFE044605200E49086000208860C86033
:1015B0000820086100200B49087048708870C870C6
:1015C0000871487120128871CC7101AB0A46044938
:1015D000054801F06BF902B0BDEC028B10BD0000B4
:1015E0000C17002060010020D41F002008B5062041
:1015F0000C49086000208860C86008200861FF204E
:101600000949087048708870C870087148718871FD
:10161000FB20C8716B460A460249044801F046F9AE
:1016200008BD00002417002068010020FC1F0020D6
:1016300008B506200C49086000208860C8600820B2
:101640000861FF200949087048708870C8700871E7
:1016500048718871FC20C8716B460A4602490448EB
:1016600001F024F908BD00002417002068010020C3
:10167000FC1F002038B5044640F2FF100C490860FA
:1016800000208860C86008200861002009490870AF
:1016900048708870C870200A08714C7100208871E9
:1016A000C8716B460A460249034801F0FFF838BD8D
:1016B0003C17002070010020D41F002008B5052031
:1016C0000C49086000208860C86008200861FF207D
:1016D0000949087048708870C8700871487188712D
:1016E000FB20C8716B460A460249044801F0DEF847
:1016F00008BD00000C17002060010020D41F00204E
:1017000008B505200C49086000208860C8600820E2
:101710000861FF200949087048708870C870087116
:1017200048718871FC20C8716B460A46024904481A
:1017300001F0BCF808BD00000C170020600100207B
:10174000D41F002004284FF000007047002070478D
:1017500010B50022044905480BF03AFB0449034840
:101760000BF028FB002010BD843B00207C270020CC
:101770008433002010B5014603480BF01BFB0248E0
:101780000BF0E8FA002010BD7C27002000207047F5
:1017900010B52DED028B0446B4F90010B4F9082001
:1017A000881A16F05FF941EC180B9FED200B53ECF3
:1017B000102B16F056FB03D2A069401EA06112E068
:1017C000B4F90010B4F90820881A16F04BF941EC6E
:1017D000180B9FED180B53EC102B16F067F902D283
:1017E000A069401CA061A069C0EB4030B4F90010B2
:1017F000084400EE100AB8EEC00A9FED101AC0EEC1
:10180000010A9FED0F0A20EE800AF0EE000A60EE5A
:10181000200A9FED0C1A80EE810AF7EE000A20EEF6
:10182000200A84ED050ABDEC028B10BD000000000B
:1018300000FFAF400000000000FFAFC000F8FF4510
:10184000DA0F49400000B44310B52DED028B044679
:10185000B4F90010B4F90820881A16F003F941EC25
:10186000180B9FED200B53EC102B16F0FAFA03D255
:10187000A069401EA06112E0B4F90010B4F908207C
:10188000881A16F0EFF841EC180B9FED180B53EC8B
:10189000102B16F00BF902D2A069401CA061A069C0
:1018A000C0EB4030B4F90010084400EE100AB8EE66
:1018B000C00A9FED101AC0EE010A9FED0F0A20EE3C
:1018C000800AF0EE000A60EE200A9FED0C1A80EE0E
:1018D000810ADFED0B0A20EE200A84ED050ABDEC3B
:1018E000028B10BD0000000000FFAF4000000000B0
:1018F00000FFAFC000F8FF45DA0F494000706045B7
:1019000000003B431B48406800F0006080B31A4869
:10191000406B00681949884205D94FF000601749AB
:101920004C3908601CE01448406B00681149B8311C
:10193000884205D94FF000601049503908600FE027
:101940000D48406B00680B495831884204D94FF06C
:1019500000600849C86003E04FF0006005498860F6
:1019600005480068006840F4007003490968086091
:101970007047000000600240782000205864024058
:10198000014801F0A1BE0000BC26002010B5FE48B1
:10199000C06C0068FD49884276D9FC48543800681C
:1019A000F949C96C0968FA4A914201D1202169E0DC
:1019B000F549C96C0968F54A483A914201D120219C
:1019C00060E0F149C96C0968F14A6032914201D185
:1019D000202157E0EC49C96C0968EC4A1832914261
:1019E00001D120214EE0E849C96C0968E84A183263
:1019F000914201D1C91445E0E349C96C0968E34A41
:101A0000303A914201D1C9143CE0DF49C96C096800
:101A1000DF4A7832914201D1C91433E0DA49C96C06
:101A20000968DA4A3032914201D1C9142AE0D64914
:101A3000C96C0968D64A3032914202D14FF4001184
:101A400020E0D149C96C0968D04A183A914202D1C4
:101A50004FF4001116E0CC49C96C0968CC4A9032A9
:101A6000914202D14FF400110CE0C749C96C0968DA
:101A7000C64A4832914203D14FF4001102E003E01C
:101A80004FF00061084070E1BF48C06C0068C04979
:101A9000A831884276D9BD4858380068BA49C96C1F
:101AA0000968BB4A914201D1202169E0B649C96C5D
:101AB0000968B64A483A914201D1202160E0B24912
:101AC000C96C0968B24A6032914201D1202157E0C5
:101AD000AD49C96C0968AD4A1832914201D1202143
:101AE0004EE0A949C96C0968A94A1832914201D14E
:101AF000C91445E0A449C96C0968A44A303A914226
:101B000001D1C9143CE0A049C96C0968A04A7832E7
:101B1000914201D1C91433E09B49C96C09689B4AC1
:101B20003032914201D1C9142AE09749C96C096841
:101B3000974A3032914202D14FF4001120E092498D
:101B4000C96C0968914A183A914202D14FF40011C8
:101B500016E08D49C96C09688D4A9032914202D1D4
:101B60004FF400110CE08849C96C0968874A483273
:101B7000914203D14FF4001102E003E04FF0006105
:101B80000840F2E08048C06C0068814948318842D2
:101B900076D97F48103840687B49C96C09687C4A0F
:101BA000914201D1202169E07749C96C0968774ADF
:101BB000483A914201D1202160E07349C96C09681B
:101BC000734A6032914201D1202157E06E49C96CBD
:101BD00009686E4A1832914201D120214EE06A49CB
:101BE000C96C09686A4A1832914201D1C91445E0AA
:101BF0006549C96C0968654A303A914201D1C914F6
:101C00003CE06149C96C0968614A7832914201D16E
:101C1000C91433E05C49C96C09685C4A30329142AE
:101C200001D1C9142AE05849C96C0968584A3032B0
:101C3000914202D14FF4001120E05349C96C096868
:101C4000524A183A914202D14FF4001116E04E491F
:101C5000C96C09684E4A9032914202D14FF400118A
:101C60000CE04949C96C0968484A4832914203D19D
:101C70004FF4001102E003E04FF00061084074E00F
:101C80004348103800684049C96C0968404A91428D
:101C900001D1202168E03C49C96C09683B4A483AB7
:101CA000914201D120215FE03749C96C0968384A67
:101CB0006032914201D1202156E03349C96C096854
:101CC000324A1832914201D120214DE02E49C96C8F
:101CD00009682F4A1832914201D1C91444E02A49B7
:101CE000C96C0968294A303A914201D1C9143BE0D4
:101CF0002549C96C0968264A7832914201D1C91434
:101D000032E02149C96C0968204A3032914201D140
:101D1000C91429E01C49C96C09681D4A3032914236
:101D200002D14FF400111FE01749C96C0968174A26
:101D3000183A914202D14FF4001115E01249C96CD2
:101D40000968134A9032914202D14FF400110BE01E
:101D50000D49C96C09680D4A4832914202D14FF4CD
:101D6000001101E04FF00061084000286FD00648E4
:101D7000C06C0068054988427BD90348C06C006884
:101D80000349884208D105E0B02100205864024090
:101D900010600240202068E0FE48C06C0068FE49E8
:101DA000884201D1202060E0FA48C06C0068FB49FD
:101DB000884201D1202058E0F648C06C0068F649FE
:101DC0006031884201D120204FE0F248C06C0068A9
:101DD000F2494839884201D1C01446E0ED48C06C50
:101DE0000068ED491831884201D1C0143DE0E9484E
:101DF000C06C0068E9491831884201D1C01434E050
:101E0000E448C06C0068E4497831884201D1C014CC
:101E10002BE0E048C06C0068E0493039884202D1CC
:101E20004FF4001021E0DB48C06C0068DA49303123
:101E3000884202D14FF4001017E0D648C06C006809
:101E4000D6493031884204D14FF400100DE0DFE173
:101E50000FE0D048C06C0068CF499031884202D171
:101E60004FF4001001E04FF00060CB49091F0860FB
:101E70006AE1C848C06C0068C8494831884274D9D2
:101E8000C448C06C0068C5496039884201D120202F
:101E900066E0C048C06C0068BF49884201D120207C
:101EA0005EE0BC48C06C0068BC49884201D120207B
:101EB00056E0B848C06C0068B7496031884201D12B
:101EC00020204DE0B348C06C0068B44948398842CE
:101ED00001D1C01444E0AF48C06C0068AE4918316D
:101EE000884201D1C0143BE0AA48C06C0068AB49ED
:101EF0001831884201D1C01432E0A648C06C006895
:101F0000A5497831884201D1C01429E0A148C06CAC
:101F10000068A2493039884202D14FF400101FE016
:101F20009C48C06C00689C493031884202D14FF413
:101F3000001015E09748C06C00689849303188421D
:101F400002D14FF400100BE09248C06C0068924937
:101F50009031884202D14FF4001001E04FF0006050
:101F60008D4908390860EFE0FFE78A48C06C0068D7
:101F70008A491839884274D98648C06C00688749F4
:101F80006039884201D1202066E08248C06C006838
:101F90008149884201D120205EE07E48C06C006803
:101FA0007E49884201D1202056E07A48C06C006802
:101FB00079496031884201D120204DE07548C06CDC
:101FC000006876494839884201D1C01444E071481C
:101FD000C06C006870491831884201D1C0143BE0E0
:101FE0006C48C06C00686D491831884201D1C0143A
:101FF00032E06848C06C006867497831884201D196
:10200000C01429E06348C06C0068644930398842D4
:1020100002D14FF400101FE05E48C06C00685E49BA
:102020003031884202D14FF4001015E05948C06C9D
:1020300000685A493031884202D14FF400100BE059
:102040005448C06C006854499031884202D14FF422
:10205000001001E04FF0006050497039C86073E033
:10206000FFE74C48C06C00684C496039884201D198
:10207000202066E04748C06C00684749884201D18B
:1020800020205EE04348C06C00684449884201D18A
:10209000202056E03F48C06C00683F4960318842CC
:1020A00001D120204DE03B48C06C00683B494839D5
:1020B000884201D1C01444E03648C06C00683649FB
:1020C0001831884201D1C0143BE03248C06C00682E
:1020D00032491831884201D1C01432E02D48C06C19
:1020E00000682D497831884201D1C01429E029487F
:1020F000C06C006829493039884202D14FF4001081
:102100001FE02448C06C006823493031884202D166
:102110004FF4001015E01F48C06C00681F493031B3
:10212000884202D14FF400100BE01A48C06C0068DE
:1021300019499031884202D14FF4001001E04FF06C
:1021400000601649703988601548007800F0020078
:1021500078B11348007820F0020011490870084651
:10216000007840F004000870012211460D4801F08B
:102170006AFE0D48007800F00200E0B10A480078DD
:1021800020F00200084908700846007840F004007A
:1021900008700BE0B0210020106402407060024023
:1021A000A900002000040240AA0000200122102102
:1021B000184801F048FE1848007800F0020078B195
:1021C0001548007820F0020013490870084600788E
:1021D00040F004000870012210210E4801F033FE87
:1021E00011F034FB0D48007800F0040080B10B487A
:1021F000007820F00400094908700846007840F093
:10220000080008700648006840F0010004490860B2
:1022100010BD000000000240AB000020A90000201B
:10222000103C0140014801F04FBA0000FC2500209D
:10223000014801F049BA00001C270020014801F0C4
:1022400043BA00009C25002001680A4BCAB2103A2C
:10225000A3FB02321209084B9B5CC365032A04D915
:102260006FF30901091D816502E06FF309018165C2
:10227000806D7047ABAAAAAA408F010801460020D2
:102280008A6A8B69002B0FD0B3F5005F1DD08AB32B
:10229000012A30D0022A2ED0032A04D1C96A11F0B3
:1022A000807F00D0012070471AB1012A07D0022A8E
:1022B000F9D1C96A11F0807FF5D001207047C96A51
:1022C000B1F1C07FFAD1012070475AB1012A0BD079
:1022D000022A07D0032AF7D1C96AB1F1C07FF3D12E
:1022E0000120704701207047C96A11F0807FFAD041
:1022F00001207047FFE701207047014671EE602A18
:10230000F0EE621AB0EE602A70EE422A82EEA13A36
:1023100001208840401E02EE900AF8EEE22A63EEA9
:10232000222AFCEEE22A12EE900A80B27047B0EE4A
:10233000401A30EEC10AF0EE401AB0EE412A00EE2B
:10234000100AB8EEC00A60EE212A01228A4000EE8F
:10235000102AB8EEC00AB7EE003A30EE433A82EEE9
:10236000830A30EE020A7047F0EE401AF4EEC11A0A
:10237000F1EE10FA02DDB0EE410A7047F4EEE01A19
:10238000F1EE10FA02D2B0EE600AF6E7B0EE610AA2
:10239000F3E77047012001F02DBC4FF4006001F01D
:1023A00029BC082001F026BC102001F023BC10B588
:1023B000202001F01FFCBDE810404FF4007001F038
:1023C00019BC70470022002905D001291AD0022922
:1023D0001BD04FF440720E490B6823F440730B601E
:1023E0000B681A430A600A6822F0F8020A600A6859
:1023F000022343EAC00010430860086840F48030BC
:10240000086070474FF48072E5E74FF40072E2E72E
:10241000103C02401448016811F4007F0FD001689D
:1024200021F400710160016841F4006101600168FC
:1024300021F400610160016841F4007101600168EC
:1024400011F4806F0FD0016821F480610160016890
:1024500041F480510160016821F4805101600168FC
:1024600041F4806101607047003C024008490A68FD
:1024700022F440720A600A6842F004020A600A68A4
:102480004FF4803343EA0020104308607047000097
:10249000103C0240064A136823F44073136013682B
:1024A0001360136843F0010313600170704700006C
:1024B000103C02400B49D1F800C02CF4407CC1F81C
:1024C00000C0D1F800C04CF4407CC1F800C0D1F885
:1024D00000C04CF0010CC1F800C00260BFF36F8F68
:1024E00043607047103C0240074A136823F440736E
:1024F0001360136843F480731360136843F001039F
:102500001360018070470000103C0240074A1368C6
:1025100023F440731360136843F40073136013686B
:1025200043F001031360016070470000103C02405B
:102530001A49086810F0100F194805D0C26942F016
:102540001002C26110220A600A6812F0200F05D042
:10255000C26942F00802C26120220A600A6812F0D1
:10256000400F05D0C26942F00402C26140220A60F5
:102570000A6812F0800F05D0C26942F00202C261FF
:1025800080220A600A6812F0020F05D0C26942F088
:102590002002C26102200860704700000C3C02402B
:1025A0008443002070B5044614490020C86101F03E
:1025B00051FC0646124D286810F4803F0ED0B4F14D
:1025C000FF3F07D024B101F045FC801BA04201D998
:1025D000032070BD286810F4803FF0D1286810F007
:1025E000010F01D001202860286810F0F20F03D0FD
:1025F000FFF79EFF012070BD002070BD84430020C6
:102600000C3C024070B50B480168001D0568001DB8
:102610000068084400280CD0074C0822A11C04F0D4
:10262000BFFE04F112012846BDE87040042204F008
:10263000B7BE70BD107AFF1F6402002038B44FF09F
:10264000000CCDF800C090F83C20012A1BD00122DC
:1026500080F83C200A680724092A17D90368DD6836
:102660000A3A02EB420204FA02F225EA0202DA60B6
:102670000A788B680A3A02EB420293400268D468F7
:102680002343D36014E038BC0220704703681D69FF
:1026900002EB420204FA02F225EA02021A610A7807
:1026A0008B6802EB42029340026814692343136172
:1026B0004A681F24072A15D203685D6B521E02EB7D
:1026C000820204FA02F225EA02025A630A8893B2ED
:1026D0000A79521E02EB820293400268546B234334
:1026E00053632CE00D2A15D203681D6BD21F02EB39
:1026F000820204FA02F225EA02021A630A8893B2FD
:102700000A79D21F02EB820293400268146B2343C2
:10271000136314E00368DD6A0D3A02EB820204FAE7
:1027200002F225EA0202DA620A8893B20A790D3AC5
:1027300002EB820293400268D46A2343D362184AB0
:10274000184B04689C4206D10C68122C03D15468C3
:1027500044F48004546004689C421CD10B68102B24
:1027600001D0112B17D1536843F40003536009685B
:10277000102910D10C490D4A0968B1FBF2F101EBA7
:10278000810149000091009929B10099491E0091E9
:1027900000990029F9D180F83CC038BC002070476E
:1027A00000230140002001400802002040420F00A9
:1027B00070B504460025002C03D0206C002610B113
:1027C00007E0012070BD204600F01EF8666484F822
:1027D0003C60206C10F0100F04D0012584F83C60A0
:1027E000284670BD206C20F4885040F00200206420
:1027F0002046FEF7A1F86664206C20F0020040F04D
:1028000001002064EAE7000000B587B000210291D2
:10281000039104910591069100681849A0F1804246
:10282000B2F5903220D0A0F18042B2F5913219D1A8
:10283000086840F480600860086800F480600190D7
:102840000F48016841F020010160006800F020009D
:1028500001904FF4806002900320039002A9094880
:1028600001F0D4F907B000BD086840F4807008603A
:10287000086800F48070019007B000BD4438024041
:10288000303802400014024090F82020012A07D07E
:10289000022A05D0416A41F480214162012070473B
:1028A00000684269114341610020704770B490F89C
:1028B0002040D0F800C0DCF808C0012C08D0022C61
:1028C00006D0416A41F48021416270BC012070470A
:1028D0000CF080640CF000652C4302D11CF0805F8A
:1028E0005FD0CCF3016CBCF1020F06D9416A41F410
:1028F0000001416270BC01207047012404FA0CF40D
:102900001C608B684FF4C0749BB1CD6804EB0C164F
:102910002B434D6843EAC5030568AB514FF4C273BE
:10292000066803EB0C130D69F550097D012909D0E8
:102930000DE00D88CB6804EB0C1643EA455305689F
:10294000AB51EBE70168CD5845F48075CD50117956
:10295000D379557941EA036193791B0443EA05234E
:1029600019434FF4C675036805EB0C1559511178DE
:10297000D37841EA0361937852781B0443EA022238
:1029800011434FF4C473026803EB0C13D150016878
:1029900004EB0C100A5842F001020A5070BC0020EF
:1029A0007047416A41F40011416270BC01207047D8
:1029B00090F82020012A07D0022A05D0416A41F46C
:1029C00080214162012070474248D0F8002242F045
:1029D0000102C0F80022D0F8002222F47C52C0F894
:1029E0000022D0F800224B6A42EA0322C0F80022FB
:1029F0000A7D012302F01F0203FA02F2D0F81C3212
:102A00009343C0F81C32CB69D3B9D0F80C3293434E
:102A1000C0F80C32B1F80CC04B686CF31F43D1F80E
:102A200014C000EBCC0CCCF84032B1F808C00B68F5
:102A30006CF31F43D1F814C000EBCC0CCCF844323B
:102A4000CB69012B1AD1D0F80C321343C0F80C32E9
:102A5000B1F800C04B686CF31F43D1F814C000EB11
:102A6000CC0CCCF84032B1F808C0CB686CF31F43F3
:102A7000D1F814C000EBCC0CCCF844328B697BB19C
:102A8000D0F804321343C0F804320B6973B1D0F8A4
:102A900014321343C0F81432096A01290CD010E033
:102AA000D0F804329343C0F80432EEE7D0F8143281
:102AB0009343C0F81432EFE7D0F81C121143C0F86A
:102AC0001C12D0F8001221F00101C0F80012002001
:102AD0007047000000640040704710B490F820C0B8
:102AE000BCF1010F09D0BCF1020F06D0416A41F4DC
:102AF0008021416210BC0120704739B1D0F800C07C
:102B0000DCF810C01CF0030F7DD006E0D0F800C048
:102B1000DCF80CC01CF0030F7BD04FF4D87C0468A9
:102B20000CEB011C54F80C4004F004049460002CDD
:102B30007DD0046854F80C40E4085460046854F8EC
:102B40000CC00CF0020CC2F80CC04FF4DA7C046824
:102B50000CEB011C54F80C4004F00F0414610468E1
:102B600054F80C40C4F307249461046854F80CC072
:102B70004FEA1C4CC2F814C04FF4DC72D0F800C00D
:102B800002EB01125CF802C083F800C0D0F800C06C
:102B90005CF802C04FEA1C2C83F801C0D0F800C0DA
:102BA0005CF802C04FEA1C4C83F802C0D0F800C0A9
:102BB0005CF80220120EDA704FF4DE72D0F800C01A
:102BC00002EB01125CF802C083F804C0D0F800C028
:102BD0005CF802C04FEA1C2C83F805C0D0F800C096
:102BE0005CF802C04FEA1C4C83F806C0D0F800C065
:102BF0005CF80220120EDA71F9B10068016941F047
:102C00002001016102E00BE003E010E010BC0020B5
:102C10007047416A41F40011416210BC01207047C5
:102C2000416A41F40011416210BC01207047046800
:102C300054F80C40640D146080E70068C16841F0EE
:102C40002001C160DEE72DE9F05F05460024286819
:102C50004669D0F804908768D0F80CA0D0F810B07E
:102C6000D0F8188016F0010F54D017F0010F17D0CC
:102C70000121816017F0020F03D0284600F0F8FC14
:102C80000EE017F0040F02D04FF4006408E017F0D4
:102C9000080F02D04FF4805402E0284600F0E7FC11
:102CA00017F4807F19D029684FF48070886017F47A
:102CB000007F03D0284600F0DDFC0EE017F4806FA3
:102CC00002D044F4005408E017F4006F02D044F43A
:102CD000804402E0284600F0CCFC17F4803F19D075
:102CE00029684FF48030886017F4003F03D02846ED
:102CF00000F0C2FC0EE017F4802F02D044F4004430
:102D000008E017F4002F02D044F4803402E0284693
:102D100000F0B1FC16F0080F07D01AF0100F04D025
:102D200044F4007429681020C86016F0040F4FF0B6
:102D3000080707D01AF0080F04D02868C760284693
:102D400000F0CEF916F0020F07D02868C06810F026
:102D5000030F02D0284600F0C5F916F0400F07D047
:102D60001BF0100F04D044F480642968102008611F
:102D700016F0200F07D01BF0080F04D02868076159
:102D8000284600F03FFC16F0100F07D028680069B5
:102D900010F0030F02D0284600F035FC16F4003F77
:102DA00008D019F0100F05D0296810204860284677
:102DB00000F02AFC16F4803F07D019F0080F04D069
:102DC00028684760284600F058FC16F4004F4AD0A7
:102DD00019F0040F44D016F4807F04D018F0010FCE
:102DE00001D044F0010416F4007F04D018F0020F63
:102DF00001D044F0020416F4806F04D018F0040FE0
:102E000001D044F0040416F4006F29D018F0700FBC
:102E100026D008F07000402815D006DC102809D014
:102E200020280AD0302816D10AE050280ED0602879
:102E300011D10EE044F008040DE044F010040AE063
:102E400044F0200407E044F0400404E044F080042F
:102E500001E044F480742868816921F07001816187
:102E6000296804204860002C05D0686A2043686205
:102E70002846FFF731FEBDE8F09F70B50446002CF0
:102E800003D094F8200010B104E0012070BD20466A
:102E900000F0A8F82068016841F00101016000F02D
:102EA000D9FF0546206840684FF0050610F0010F75
:102EB00011D100F0CFFF401B0A2807D9606A40F407
:102EC0000030606284F82060012070BD2068406896
:102ED00010F0010FEDD02068016821F002010160BF
:102EE00000F0B8FF05462068406810F0020F11D0CE
:102EF00000F0B0FF401B0A2807D9606A40F4003098
:102F0000606284F82060012070BD2068406810F085
:102F1000020FEDD1207E01283FD02068016821F00A
:102F200080010160607E01283DD02068016821F0A9
:102F300040010160A07E01283BD02068016821F09B
:102F400020010160E07E012839D02068016841F04D
:102F500010010160207F012837D02068016821F02E
:102F600008010160607F012835D02068016821F0E8
:102F700004010160E168A0686269084321691143A6
:102F800008436168491E08432168C86100206062E7
:102F9000012084F82000002070BD2068016841F005
:102FA00080010160BEE72068016841F040010160D6
:102FB000C0E72068016841F020010160C2E7206895
:102FC000016821F010010160C4E72068016841F048
:102FD00008010160C6E72068016841F00401016052
:102FE000C8E70000F0B587B0002102910391049179
:102FF00005910691354E0168354B3068022409254C
:10300000401C344AA1F180474FF0030CB7F5C84784
:1030100010D0A1F18047B7F5D04730D1116841F009
:1030200080611160116801F08061019130600128B8
:1030300027D02EE03060012807D1106840F00070E2
:103040001060106800F000700190186840F00800EF
:103050001860186800F008000190CDF808C00394CB
:10306000CDF814C0069502A91B4800F0CFFD002240
:103070000621142001F016FB142001F005FB07B017
:10308000F0BD106840F000701060106800F0007033
:103090000190186840F002001860186800F0020003
:1030A0000190602002900394CDF814C0069502A907
:1030B0000A4800F0ABFD00220621402001F0F2FAA0
:1030C000402001F0E1FA07B0F0BD0000240200202A
:1030D0003038024040380240000C024000040240F8
:1030E00070470000F0B52DED0E8B8BB0044602AB9F
:1030F00004AA00212046FFF7F0FCFE4884427DD15F
:103100000498052808D0312879D0512878D0A0F229
:103110000720002875D13FE09DF80A009DF80910AE
:1031200040EA012085B29DF80B0000019DF80C10CB
:1031300040EA21169DF80D009DF80C1001F00F01DA
:1031400040EA01279DF808000009EB4908701021AA
:10315000DFEDEA0A9FEDEA0A2846FFF7E8F8E648BD
:1031600080ED010A0C21F3EE0E0ABBEE0E0A30468A
:10317000FFF7DDF8E04880ED020A0C21F2EE040AC8
:10318000BAEE040A3846FFF7D2F8DB4880ED030AAE
:1031900004200DF0AFFBE4E0DA480088D94908814B
:1031A0009DF80E0088719DF809009DF8081040EA0E
:1031B000012000B2D34908809DF80B009DF80A1049
:1031C00040EA012000B2CF4948809DF80D009DF8EB
:1031D0000C1040EA012000B2CA4988800846B0F9C4
:1031E000040000EE100AF8EEC00A9FEDC71A80EE48
:1031F000810AF2EE040A20EE200A03E0B2E06DE05C
:103200004DE0ADE0DFEDC10A20EE200A084680ED7A
:10321000030AB1F9020014F025FC41EC1E0B9FEDEE
:10322000BC0B53EC102B14F07DFC41EC1D0B9FEDFF
:10323000BA0B53EC102B14F057FA41EC1C0B9FED1A
:10324000B80B53EC102B14F04FFA41EC1B0B9FED15
:10325000B60B53EC102B14F065FC41EC1A0B9FEDF0
:10326000B40B53EC102B14F03FFA41EC190B9FED0B
:10327000B20B53EC102B14F055FC41EC180B13F06F
:103280009FFFA04908610846FEF782FA9D4890ED2D
:10329000050A80ED070A03200DF02CFB61E09DF884
:1032A0000800A74908709DF809008DF804009DF8F2
:1032B0000A008DF805009DF80B008DF806009DF8BA
:1032C0000C008DF807000846019941609DF80F0039
:1032D0009B4988720B200DF00DFB42E09DF8080021
:1032E00040B200EE100AB8EEC00ADFED960A20EEFA
:1032F000200A954880ED0B0A9DF8090040B200EEC7
:10330000100AB8EEC00ADFED910A20EE200A8E48BE
:1033100080ED0C0A9DF80A0040B200EE100AB8EEEB
:10332000C00ADFED880A20EE200A874880ED0D0AEA
:103330009DF80B0040B200EE100AB8EEC00ADFEDB7
:10334000830A20EE200A804880ED0E0A9DF80C10BA
:10335000A0F5797080F820140A200DF0CBFA00E077
:1033600000BF48E17A488442FBD10498062805D082
:10337000A0F20520E8B301287DD1A2E09DF80A0063
:103380009DF8091040EA012087B29DF80B0000016A
:103390009DF80C1040EA21159DF80D009DF80C10C9
:1033A00001F00F0140EA01269DF80800000952498A
:1033B00008741021DFED510A9FED510A3846FEF7DF
:1033C000B6FF4D4880ED050A0C21F3EE0E0ABBEE68
:1033D0000E0A2846FEF7ABFF474880ED060A0C218F
:1033E000F2EE040ABAEE040A3046FEF7A0FF4248A5
:1033F00000E005E080ED070A05200DF07BFAF9E01A
:103400004048018801859DF80E1080F826109DF82F
:1034100009009DF8081040EA012000B239490884EB
:103420009DF80B009DF80A1040EA012001B23548D2
:1034300041849DF80D009DF80C1040EA012001B276
:1034400030488184B0F9240000EE100AF8EEC00A7A
:103450009FED401A80EE810AF3EE040A20EE200A66
:10346000DFED3D0A20EE200A264880ED0B0A0146DA
:10347000B1F9220000E0BCE014F0F4FA41EC1A0BC0
:103480009FED230B53EC102B14F04CFB41EC190B6C
:103490009FED210B53EC102B14F026F941EC180B87
:1034A00013F08EFE1749086301F12000FEF7CCF9F6
:1034B000144890ED0D0A80ED0F0A01200DF01AFA64
:1034C00098E010480188A0F848109DF80E1080F888
:1034D00046109DF809009DF8081040EA012000B24E
:1034E0000849A1F840009DF80B009DF80A1040EA39
:1034F000012033E0D41F00209C170020C3F5484072
:10350000C3F548C0BC17002000401C46EC51383EB3
:103510006E861BF0F92109400000000000003E40CB
:103520000000000000004240000000000000F03FEA
:1035300000000000000014400000000000000040F7
:103540001C180020CDCCCC3DD40700200AD7233C4A
:10355000FC1F0020000080469A99993E01B228483D
:10356000A0F842109DF80D009DF80C1040EA0120D3
:1035700001B22348A0F84410B0F9440000EE100A4C
:10358000F8EEC00A1FED0D1A80EE810AF3EE040A70
:1035900020EE200A5FED100A20EE200A184880ED88
:1035A000130A0146B1F9420014F05CFA41EC1A0B1F
:1035B0001FED290B53EC102B14F0B4FA41EC190B4E
:1035C0001FED2B0B53EC102B14F08EF841EC180B65
:1035D00013F0F6FD0A49086501F14000FEF734F9E1
:1035E000074890ED150A80ED170A02200DF082F9C8
:1035F00000E000BF00BF0BB0BDEC0E8BF0BD0000C3
:10360000BC17002070477047704770B5044694F8A7
:103610002000012805D0606A40F40020606201208B
:1036200070BD022084F820002068016821F00101AB
:10363000016000F00FFC05462068406810F0010FA3
:1036400012D000F007FC401B0A2808D9606A40F439
:1036500000306062052084F82000012070BD2068E1
:10366000406810F0010FECD10020606270BD70471F
:1036700070477047704770477047704710B50446F1
:10368000002C02D0607910B106E0012010BD0020AE
:103690002071204600F004F801206071002010BD68
:1036A00081B00068A0F18041B1F50C3108D1054826
:1036B000016841F480510160006800F4805000907E
:1036C00001B07047303802402DE9F84304464FF00E
:1036D0000008CDF8008076484FF416510068B0FB22
:1036E000F1F7A56D2E6894F85C00082101FA00F04E
:1036F000304211D02068026812F0040F0CD002682A
:1037000022F00402026094F85C0001FA00F0A86064
:10371000606D40F00100606594F85C004FF00109B5
:1037200009FA00F0304209D02168496911F0800F90
:1037300004D0A860606D40F00200606594F85C10F1
:1037400004208840304209D02168096811F0020F36
:1037500004D0A860606D40F00400606594F85C10CF
:1037600010208840304224D02168096811F0080FE9
:103770001FD0A8602068016811F4802F0DD0006868
:1037800010F4002F04D0A16C99B12046884710E0B6
:10379000216C71B1204688470BE0016811F4807FED
:1037A00003D1016821F008010160216C09B12046B4
:1037B000884794F85C1020208840304251D021681E
:1037C000096811F0100F4CD0A86094F83500052856
:1037D0000DD02068016811F4802F32D0006810F4F9
:1037E000002F29D0E16B59B32046884739E0206883
:1037F000016821F0160101602068416921F0800113
:103800004161206C08B9A06C20B12068016821F0EA
:103810000801016094F85C003F2101FA00F0A86003
:1038200084F8359084F83480216D00293ED001B0B1
:103830002046BDE8F0430847616C09B1204688473F
:103840000FE0016811F4807F07D1016821F01001B9
:10385000016084F8359084F83480E16B09B120462A
:103860008847606D002821D0606D10F0010F15D0E1
:10387000052084F835002068016821F0010101600D
:103880000098401C0090B84204D82068006810F0EE
:10389000010FF5D184F8359084F83480E16C00296B
:1038A00004D001B02046BDE8F0430847BDE8F883E6
:1038B000080200202DE9F041044600F0CBFA05464D
:1038C000DCB1022084F83500002684F834602068DA
:1038D000016821F0010101602068006810F0010F0B
:1038E00013D000F0B7FA401B052809D920206065E5
:1038F000032084F83500BDE8F0810120BDE8F081A7
:103900002068006810F0010FEBD121680868234A95
:103910001040A3686268D4F810C01A43E36843EA11
:103920000C031A4363691A43A3691A43E3691A43F0
:10393000236A1A431043626A042A03D1236BE26AA2
:103940001A43104308602068406920F00701606A4C
:1039500040EA0105012704280ED1A06A0543E06A68
:1039600050B12046FEF78AFC30B14020606584F8F3
:1039700035700120BDE8F081206845612046FEF7E2
:1039800063FC94F85C103F2202FA01F181606665E5
:1039900084F835700020BDE8F08100003F8010F011
:1039A00070B5044600F056FA0546B4F1FF3F02D068
:1039B00004480078044400F04DFA401BA042FAD3BA
:1039C00070BD0000940200202DE9F04104460F462E
:1039D000DFF8988098F8180001280AD0012088F8AC
:1039E00018004CF25030FEF7DDFD0246100003D007
:1039F00035E00220BDE8F0814FF0FF3038602068EC
:103A00001B4E012815D0A568E0682844A84224D997
:103A1000217C2846FEF7D6FC4CF25030FEF7C2FD62
:103A20000246306820F0FA00306010000FD03D6090
:103A300013E0207C6168FEF719FD4CF25030FEF770
:103A4000B1FD0246306820F00400306005E06D1CD6
:103A5000A168E0680844A842DAD8FEF7DBFC002041
:103A600088F818001046BDE8F0810000844300206B
:103A7000103C02400348016841F000410160002011
:103A800070470000103C02402DE9F0410646884690
:103A900014461D461A4F387E012807D0012038767B
:103AA0004CF25030FEF77EFD18B115E00220BDE863
:103AB000F081AEB1012E18D0022E1BD022462B462B
:103AC0004046FEF7F7FC4CF25030FEF76BFD0D4917
:103AD0000A6822F001020A6000213976BDE8F0810F
:103AE000E1B24046FEF7D6FCEDE7A1B24046FEF754
:103AF000FBFCE8E721464046FEF708FDE3E700004F
:103B000084430020103C0240002008490A6812F05B
:103B1000004F09D0074A064B1360074B1360096832
:103B200011F0004F00D0012070470000103C02400F
:103B300023016745043C0240AB89EFCD10B5044634
:103B4000102C14D106200CF0D5FE2248007840F04D
:103B50000100204908702048007840F001001E490B
:103B600008701E480078A0B30FF070FE31E0202CE2
:103B70000ED107200CF0BEFE1948007840F001007D
:103B8000174908701548007818B30FF05FFE20E061
:103B9000082C09D108200CF0ADFE1248007840F046
:103BA00001001049087014E0012C12D113F00EF935
:103BB00001280ED00C490D48006812F057FB0A4846
:103BC000006830B120070A490860BFF34F8FBFF388
:103BD0006F8F10BDAA000020AB000020AD000020B8
:103BE000A9000020AC00002020010020840000205B
:103BF00004ED00E010B504490A68024202D00860F2
:103C0000FFF79CFF10BD0000143C01402DE9F84F68
:103C10000022DFF818A2DFF810924FF0010E032700
:103C20004FF00F08AAF1040B0EFA02FC0B6803EA2E
:103C30000C0363457DD10C7904F00304012C01D001
:103C4000022C14D18568540007FA04F6B543CE68F7
:103C500006FA04F42C438460446824EA0C0C0C79C2
:103C6000C4F30014944044EA0C0CC0F804C0D1F82A
:103C700004C037EA0C0C0CD0C4684FEA420C07FAB7
:103C80000CF5AC438D6805FA0CFC4CEA040CC0F84A
:103C90000CC091F804C00CF0030CBCF1020F12D15F
:103CA0004FEAD20C00EB8C04256A4FEA427C4FEAC3
:103CB000DC6C08FA0CF6B5430E6906FA0CFC4CEA0B
:103CC000050CC4F820C004684FEA420C07FA0CF552
:103CD000AC430D7905F0030505FA0CFC4CEA040C25
:103CE000C0F800C0D1F804C01CF4403F7DD0D9F822
:103CF00000C04CF4804CC9F800C0D9F800C00CF4E6
:103D0000804CCDF800C022F0030C0CF1804505F585
:103D10009835D5F808C89407240F08FA04F62CEA59
:103D20000606A0F1804CBCF5003C64D0A0F1804CAC
:103D300000E05AE0BCF5013C60D0A0F1804CBCF53D
:103D4000023C5ED0A0F1804CBCF5033C5CD0A0F1FD
:103D5000804CBCF5043C5AD0A0F1804CBCF5053C2D
:103D600058D0A0F1804CBCF5063C56D0A0F1804C58
:103D7000BCF5073C54D04FF0080C0CFA04FC4CEA9C
:103D8000060CC5F808C8DAF800C02CEA030C4C6829
:103D900014F4801F01D04CEA030CCAF800C0244C74
:103DA000D4F800C02CEA030C4D6815F4001F01D0B4
:103DB0004CEA030CC4F800C0DBF800C02CEA030C8A
:103DC0004C6814F4003F01D04CEA030CCBF800C05F
:103DD000184CD4F800C02CEA030C4D6815F4803F51
:103DE00001D04CEA030CC4F800C0521C102AFFF4A6
:103DF0001BAFBDE8F88F4FF0000CBEE74FF0010C91
:103E0000BBE74FF0020CB8E74FF0030CB5E74FF0FB
:103E1000040CB2E74FF0050CAFE74FF0060CACE72F
:103E20004FF0070CA9E7000044380240083C01406D
:103E30000C3C0140003C01400069084201D00120D7
:103E4000704700207047002A01D081617047090443
:103E5000816170470148806870470000940200202B
:103E600070B50446002C04D094F83D00002510B134
:103E700006E0012070BD84F83C50204600F0E0FAD6
:103E8000242084F83D002068016821F001010160D0
:103E90002068016841F4004101602068016821F454
:103EA0000041016001F048FB544B6168994203D81E
:103EB0005349884203D304E05249884201D2012089
:103EC00070BD5149B0FBF1F12268D2F804C02CF06A
:103ED0003F0C4CEA010CC2F804C062689A4201D857
:103EE0004A1C07E04FF4967251434FF47A72B1FBCB
:103EF000F2F14A1C2168D1F820C02CF03F0C42EAB4
:103F00000C020A626168994210D84900401EB0FB59
:103F1000F1F2521CC2F30B02042A01D2042026E063
:103F2000B0FBF1F0401CC0F30B0020E0A268002AB7
:103F300050D001EBC10303EB0113A0F1010CBCFB5A
:103F4000F3F35B1C43F480431B051B0D4AD0002A8E
:103F50004AD001EBC10202EB0111401EB0FBF1F0AF
:103F6000401CC0F30B0040F4804040F40040216846
:103F7000CA6922F0FF0222F44F421043C861216A4D
:103F8000E06901432068026822F0C0021143016029
:103F9000E168206901432068826822F0FF0222F470
:103FA000034211438160A169606901432068C268CE
:103FB00022F0FF021143C1602068016841F0010155
:103FC00001602564202084F83D00256384F83E507C
:103FD000002070BD01EB4103A0F1010CBCFBF3F329
:103FE0005B1CB1E70120C2E701EB4101401EB0FBC1
:103FF000F1F0401CC0F30B00B7E70000A086010001
:1040000080841E0000093D0040420F002DE9FF4F53
:1040100083B004468A469346DDF84490DDF840803C
:10402000129EFFF717FF054694F83D00202803D0A5
:1040300007B00220BDE8F08F19230122A0492046D5
:10404000009502F077FE18B107B00220BDE8F08FAE
:1040500094F83C00012808D0012084F83C00206836
:10406000016811F0010F04D007E007B00220BDE89D
:10407000F08F016841F0010101602068016821F4BE
:1040800000610160222084F83D00402084F83E0059
:1040900000272764C4F82480A4F82A90608D208526
:1040A0008848E062019500965A4651462046069B94
:1040B00002F000FD18B107B00120BDE8F08F208D9F
:1040C00010B3012829D0022835D0206841698069C1
:1040D0000290208D002800F0E880DFF8EC81208D30
:1040E000032800F2B780012834D002284AD0334692
:1040F000002241462046009502F01CFE00286CD0AC
:1041000007B00120BDE8F08F206841698169029104
:10411000016841F400710160DBE72068016821F467
:10412000806101602068416981690291016841F400
:1041300000710160CDE72068016821F480610160B1
:104140002068016841F4006101602068416980696C
:104150000290BEE72A463146204602F0ACFE18B176
:1041600007B00120BDE8F08F20680069616A08701F
:10417000606A401C6062208D401E2085608D401E5C
:1041800060858EE03346002241462046009502F0CD
:10419000D1FD18B107B00120BDE8F08F206801689B
:1041A00041F40071016020680069616A0870606A0A
:1041B000401C6062218D491E2185618D491E6185EB
:1041C000216809690170606A401C6062208D401E90
:1041D0002085608D401E608563E02068016821F4C1
:1041E0008061016020680069616A0870606A401C33
:1041F0006062208D401E2085608D401E60853346A4
:10420000002241462046009502F094FD18B107B007
:104210000120BDE8F08F2068016841F40071016061
:1042200020680069616A0870606A401C6062218DC4
:10423000491E2185618D491E6185216809690170CA
:10424000606A401C6062208D401E2085608D401E8B
:10425000608526E02A463146204602F02CFE18B141
:1042600007B00120BDE8F08F20680069616A08701E
:10427000606A401C6062218D491E2185618D491E46
:1042800061852268516911F0040F0AD0116901702B
:10429000606A401C6062208D401E2085608D401E3B
:1042A0006085208D00287FF41AAF202084F83D001F
:1042B00084F83E7084F83C7007B00020BDE8F08FB1
:1042C000020010000000FFFF040001002DE9FF4F75
:1042D00083B004468A469346DDF84490DDF840807A
:1042E000129EFFF7B7FD054694F83D00202803D045
:1042F00007B00220BDE8F08F192301224E49204665
:10430000009502F017FD18B107B00220BDE8F08F4C
:1043100094F83C00012808D0012084F83C00206873
:10432000016811F0010F04D007E007B00220BDE8DA
:10433000F08F016841F0010101602068016821F4FB
:1043400000610160212084F83D00402084F83E0097
:1043500000272764C4F82480A4F82A90608D208563
:104360003648E062019500965A4651462046069B23
:1043700002F04AFC18B107B00120BDE8F08F208D93
:10438000002836D02A463146204602F0D2FD58B1E8
:10439000206C042804D12068016841F40071016098
:1043A00007B00120BDE8F08F606A216800780861DD
:1043B000606A00F1010CC4F824C0208D401E80B258
:1043C0002085618D491E61852368596911F0040FAC
:1043D0000CD058B19CF800001861606A401C606203
:1043E000208D401E2085608D401E6085208D002818
:1043F000C8D12A463146204602F06EFC58B1206CE6
:10440000042804D12068016841F40071016007B0FC
:104410000120BDE8F08F2068016841F4007101605F
:10442000202084F83D0084F83E7084F83C7007B08A
:104430000020BDE8F08F0000020010000000FFFF28
:104440002DE9F04786B006460024019402940394B7
:1044500004940594306853490327534DA0F18042DA
:104460004FF012084FF001094FF0040AB2F5A842CC
:104470003ED0A0F18042B2F5B0425AD0A0F18042C5
:10448000B2F5B84231D1086840F00400086008680D
:1044900000F004000090086840F00100086008681F
:1044A00000F00100009048150190CDF80880CDF88B
:1044B0000C900497CDF814A001A93C48FFF7A6FB87
:1044C000A8150190CDF80880CDF80C900497CDF890
:1044D00014A001A93648FFF799FB286840F40000B2
:1044E0002860286800F40000009006B0BDE8F0875E
:1044F000086840F002000860086800F002000090C0
:104500004FF440700190CDF80880CDF80C900497DE
:10451000CDF814A001A92748FFF778FB286840F4DC
:1045200000102860286800F40010009006B0BDE874
:10453000F087086840F020000860086800F020005C
:1045400000900197CDF80880CDF80C900497CDF835
:1045500014A001A91848FFF759FB286840F480000F
:104560002860286800F480000090154D13482860EA
:104570004FF0606068604020A860EC600001286136
:104580006C61AC61EC61C00128626C622846FFF787
:1045900091F908B1FDF715FF7563AE6306B0BDE88C
:1045A000F0870000303802404038024000080240E6
:1045B000000002400004024000140240B8600240C3
:1045C00020210020024881680278114481607047F0
:1045D0009402002010B50B48016841F4007101609D
:1045E000016841F480610160016841F480710160FB
:1045F000032000F08BF80F2000F006F800F026F8FA
:10460000002010BD003C024070B504460D4D4FF433
:104610007A712878B1FBF0F00B490968B1FBF0F032
:1046200001F0ECFC08B1012070BD102C07D2002273
:104630002146501E00F036F86C60002070BD01204D
:1046400070BD0000940200200802002082B00C48D7
:10465000016841F480410160006800F480400190ED
:104660000848016841F080510160006800F0805006
:10467000019000220F21901E02B000F013B800003C
:10468000443802404038024000280ADB00F01F0195
:10469000012202FA01F14009800000F1E020C0F897
:1046A0000011704710B4184B1B68C3F30223C3F109
:1046B000070CBCF1040F01D94FF0040C1C1D072C92
:1046C00001D2002300E0DB1E012404FA0CFCACF153
:1046D000010C0CEA0101994004FA03F35B1E1A4035
:1046E0001143002806DB00F1E020090180F80014E6
:1046F00010BC704700F00F0000F1E020090180F8C5
:10470000141D10BC704700000CED00E000F0070025
:10471000064A11684FF6FF03194041EA002040F0B5
:10472000FD7040F080601060704700000CED00E00C
:10473000BFF34F8F05480168054A01F4E06111435A
:104740000160BFF34F8F00BFFDE700000CED00E0FC
:104750000400FA057047006841620020704730B4D9
:104760000368586A00291BD0D3F828C000EB1C4C02
:1047700000200129A1F101014FF4827408D004EB5B
:1047800080055D590CEB154C401CC0B28842F6D335
:1047900004EB81014CEA0240585030BC00207047C5
:1047A00040EA02409862F8E7D0F8080508F002BF36
:1047B00001EBC10200EB8202D0F80805D26C08F0D0
:1047C00023BE01EBC10200EB8202D0F80805D2F84B
:1047D0008C2208F087BED0F8080508F0EDBE11F075
:1047E000800F01F00F0101EBC10100EB810101D04D
:1047F0003C3101E001F51F71006809F0F2BE70B5AF
:10480000044611F0800F01F00F0000EBC00104EB33
:1048100081014FF001024FF0000502D03C314A7097
:1048200002E001F51F714D70087094F8BC04012876
:1048300008D084F8BC24206809F04EFB84F8BC54EE
:10484000002070BD022070BD70B5044601F00F025B
:104850006068824201D9012070BD01F00F0000EBB9
:10486000C00011F0800F04EB80004FF001034FF007
:10487000000503D000F13C014B7002E000F51F7110
:104880004D708D700A7094F8BC04012808D084F82B
:10489000BC34206809F034FD84F8BC54002070BD9D
:1048A000022070BD01F00F0101EBC10100EB81009E
:1048B000D0F89C02704770B5044611F0800F01F0EB
:1048C0000F0000EBC00104EB81014FF0010C4FF031
:1048D000000503D03C3181F801C002E001F51F71F1
:1048E0004D700870CA600B714A7802B10881022BC2
:1048F00000D14D7194F8BC04012808D084F8BCC4E0
:10490000206809F025FA284684F8BC5470BD0220BE
:1049100070BD10B50C4604F00F0C0CEBCC0100EB95
:10492000810101F51F710A618B6100230B624B70DD
:1049300081F800C00369012B00D14A6114F00F0F08
:1049400005D0027C006809F036FD002010BD027C15
:10495000006809F00DFCF8E770B504460D46616883
:1049600005F00F00884201D9012070BD15F0800FBD
:104970004FF000064FF0010206D000EBC00104EB3F
:1049800081013C314A7006E005EBC50104EB810171
:1049900001F51F714E708A70087094F8BC040128EC
:1049A00008D084F8BC24206809F0D6FC15F00F0F5D
:1049B00002D007E0022070BD217C04F2C4422068CE
:1049C00009F06EFC84F8BC64002070BD10B50C4684
:1049D00004F00F0C0CEBCC0100EB81013C310A61BF
:1049E0008B6100230B6201234B7081F800C00369C7
:1049F000012B00D14A6114F00F0F05D0027C006832
:104A000009F0D9FC002010BD027C006809F0B0FB61
:104A1000F8E72DE9F05F04462568284609F0A4FE72
:104A200000287ED1206809F0CBFE002879D0D5F887
:104A30000808C0F30D20C4F8FC04206809F0C0FE8B
:104A400010F0020F04D02068416901F002014161B9
:104A5000206809F0B5FE10F0100F36D0206881698B
:104A600021F0100181612F6A07F00F0000EBC000F8
:104A700004EB800000F51F76C7F34340022802D004
:104A8000062812D01CE047F6F070074218D0C7F392
:104A90000A1217462846316909F096FE30693844F3
:104AA0003061306A384430620AE0082204F2C441BE
:104AB000284609F089FE306AC7F30A1108443062BB
:104AC0002068816941F010018161206809F078FE59
:104AD00010F4002F4FF0100B4FF0000A4FF00109B7
:104AE00067D00026206809F04AFE80465FEA080089
:104AF0005FD018F0010F56D0F1B2206809F058FECF
:104B0000074617F0010F07D005EB4610C0F8089BC9
:104B10003146204603F06CFC17F0080F0AD008203D
:104B200000E01FE205EB4611C1F8080B31462046B4
:104B300003F03AFC17F0100F03D005EB4610C0F855
:104B400008BB17F0020F1DD0686910F0800F05D068
:104B5000D5F8040840F48061C5F8041806EBC600D7
:104B600004EB800000F51F70C178012905D180F8A1
:104B700003A0F1B2204600F002FA05EB4611022034
:104B8000C1F8080B17F0200F04D005EB46112020C8
:104B9000C1F8080B17F4005F05D005EB46114FF480
:104BA0000050C1F8080B761C4FEA5808B8F1000F06
:104BB0009FD1206809F004FE10F4802F74D0206883
:104BC00009F0D6FD07460026002F6DD04FF0020BEE
:104BD00017F0010F64D0F1B2206809F0D7FD8046CC
:104BE00018F0010F24D006F00F0009FA00F0D5F8F4
:104BF00034188143C5F8341805EB4610C0F80899FD
:104C00002069012810D106EBC60004EB8000826CFD
:104C1000C16C1144C1643EB9606D28B904F2C4424C
:104C20000121206809F03CFBF1B22046FFF7C0FDEE
:104C300018F0080F04D005EB46110820C1F8080948
:104C400018F0100F04D005EB46111020C1F8080928
:104C500018F0400F04D005EB46114020C1F80809B8
:104C600018F0020F15D03146284609F041FD06EB39
:104C7000C60004EB80003C30C178012905D180F8E2
:104C800003A0F1B2204600F076F905EB4610C0F81B
:104C900008B918F0800F03D03146204603F01CFC01
:104CA000761C7F08002F93D1206809F089FD10F051
:104CB000004F11D0D5F8040820F00101C5F8041800
:104CC00094F8F404012861D0204600F056FA2068D8
:104CD000416901F000414161206809F071FD10F463
:104CE000006F0CD0D5F8080810F0010F02D0204654
:104CF00000F088FA2068416901F400614161206890
:104D000009F05EFD10F4805F65D0D5F8040820F04E
:104D10000101C5F804181021206809F0E9FC002100
:104D2000606800281DD94FF67F3205EB4110C0F8AE
:104D30000829D0F8003923F40013C0F80039C0F86E
:104D4000082BD0F8003B23F40013C0F8003BD0F848
:104D5000003B43F00063C0F8003B491C6068884298
:104D6000E3D8D5F81C0840F00111C5F81C18206BD9
:104D700098B1D5F8840840F00B01C5F88418D5F82F
:104D8000440840F00B01C5F8441813E084F8F4A47B
:104D900000212046FFF7DEFC99E7D5F8140842F21F
:104DA0002B010143C5F81418D5F8100840F00B0189
:104DB000C5F81018D5F8000820F4FE61C5F80018F1
:104DC000217C04F2C442206809F06AFA2068416933
:104DD00001F480514161206809F0F2FC10F4005F99
:104DE00016D0206809F002F8206809F0ADFCE060F8
:104DF00000F09CFB23680146227B184609F050FD19
:104E0000204600F0A3F92068416901F40051416196
:104E1000206809F0D5FC10F0080F07D0204600F0FC
:104E2000B0F92068416901F008014161206809F08A
:104E3000C7FC10F0800F17D0A86920F08001A9618D
:104E40000126606801280FD906EBC60004EB80003C
:104E500090F87F02012803D1F1B22046FFF7BFFC92
:104E6000761C6068B042EFD8206809F0A9FC10F405
:104E7000801F23D00126606801281AD905EB46104F
:104E8000D0F8001906EBC60004EB800090F8402033
:104E9000012A0AD111F0004F07D080F83F90F0B2FC
:104EA00040F080012046FFF79AFC761C6068B04213
:104EB000E4D82068416901F480114161206809F05B
:104EC0007FFC10F4001F2DD001206168012924D936
:104ED00005EB4011D1F8001B00EBC00204EB82028D
:104EE00092F88032012B14D111F0004F11D094F8B8
:104EF000FC3401F4803103F00103994209D182F8B6
:104F00007F92A96941F08002AA61696911F0800F5E
:104F10002AD0401C61688142DAD82068416901F4D6
:104F200000114161206809F04BFC10F0804F07D060
:104F30002046FFF739FC2068416901F0804141615A
:104F4000206809F03DFC10F0040F0BD02068456884
:104F500015F0040F02D02046FFF73DFC20684168A1
:104F600029434160BDE8F09FD5F8040840F4007083
:104F7000C5F80408D1E7D0F8080508F072BBD0F8EE
:104F8000080508F083BB2DE9F0478AB00446002CE1
:104F900005D0266894F8BD04002520B108E00AB0C9
:104FA0000120BDE8F08784F8BC54204600F08CF85E
:104FB000032084F8BD04F06B10F4807F00D12561DC
:104FC000206809F0CFF804F11000D4F82C8090E8A4
:104FD0000F10A76A666A8DE80F10CDF81C8006973F
:104FE0000596616B206B0991089094E80F0008F01A
:104FF0000BFF022728B184F8BD740AB00120BDE878
:10500000F0870021206809F003FC00216068012678
:10501000002813D901EBC10004EB800080F83D604B
:1050200080F83C10A0F8441080F840508564C564B6
:105030004565481CC1B260688842EBD800216068B1
:10504000002814D901EBC10004EB800080F87D52E8
:1050500080F87C1280F88052C0F88852C0F88C52D8
:10506000C0F89452481CC1B260688842EAD804F182
:105070001000D4F82CA090E80F10D4F82890D4F8A1
:1050800024808DE80F10CDF81CA0CDF81890CDF835
:105090001480616B206B0991089094E80F0008F070
:1050A000A5FF28B184F8BD740AB00120BDE8F087DF
:1050B00084F8385084F8BD64206808F089FF0AB08D
:1050C0000020BDE8F087000000B587B00021029104
:1050D00003910491059106910068B0F1A04F2BD186
:1050E0001648016841F001010160006800F001000C
:1050F00001904FF4C05002900220039003200590CD
:105100000A20069002A90E48FEF780FD0D480168AE
:1051100041F0800101600C48016841F48041016068
:10512000006800F480400190002205214320FFF731
:10513000B9FA4320FFF7A8FA07B000BD30380240A3
:1051400000000240343802404438024070B5044642
:105150000125E06800280ED0022801D0FDF731F9C2
:105160002946D4F8080508F002FBD4F80805BDE884
:10517000704008F0B5BA0025F2E7D0F8080508F04D
:10518000DFBAD0F8080508F0E5BA10B5044694F87F
:10519000BC0401280BD0012084F8BC0484F838102A
:1051A000206809F065FB002084F8BC0410BD0220D3
:1051B00010BDD0F8082500F2C441104608F0E3BA4B
:1051C00010B50446206894F8BC14012906D00121CA
:1051D00084F8BC14A16A012902D008E0022010BDA5
:1051E000A169012903D0816B41F48031816320687A
:1051F00009F051FA206808F0DDFE002084F8BC04B4
:1052000010BD000010B50446D4F8080508F0FFFAF8
:105210002068D0F8001E41F00101C0F8001E206A8D
:10522000002804D00248016841F00601016010BD69
:1052300010ED00E02DE9F84304464FF00108207816
:105240004FF0000710F0050F33D0DFF84491C9F894
:105250006870FEF7FFFD06464E4D286810F0006F9F
:105260000BD0FEF7F7FD801B022802D90320BDE812
:10527000F883286810F0006FF3D16068217A80010C
:1052800040EA017044490860C9F86880FEF7E2FD11
:105290000646286810F0006F0BD1FEF7DBFD801B7F
:1052A000022802D90320BDE8F883286810F0006FB7
:1052B000F3D0207810F0020F5CD03848016841F03C
:1052C00080510160006800F080500090344D2868E3
:1052D00040F480702860FEF7BDFD0646286810F493
:1052E000807F0BD1FEF7B6FD801B022802D9032078
:1052F000BDE8F883286810F4807FF3D0294D286832
:1053000000F4407028B3A18901F44071814220D09B
:10531000286820F440702449C1F800800F6028609C
:10532000286810F0010F14D0FEF794FD0646286897
:1053300010F0020F0DD141F28837FEF78BFD801B74
:10534000B84202D90320BDE8F883286810F0020FA4
:10535000F3D0E0684FF4407131EA000213490CD0F9
:10536000086820F4F81008602868A189C1F30B01CF
:10537000084328600020BDE8F8830A6820F44070E4
:1053800022F4F81220F0704010430860ECE70000AF
:105390000000474200380240843802404038024052
:1053A0000070004070380240400E4742083802400A
:1053B0002DE9F04704460D46002C13D0DFF8549138
:1053C000D9F80000EFB200F00700A8420DD289F82A
:1053D0000070D9F8000000F00700A84205D00120B5
:1053E000BDE8F0870120BDE8F08720684A4E10F044
:1053F000020F14D010F0040F03D0306840F4E050D6
:105400003060207810F0080F03D0306840F460401E
:1054100030603068A16820F0F000084330602078E8
:1054200010F0010F3ED060683C49012808D00228E6
:105430000DD003280BD0096811F0020F28D00AE024
:10544000096811F4003F06D10120BDE8F087096822
:1054500011F0007F19D0316821F00301084330605A
:10546000FEF7F8FC80463068616800F00C00B0EB95
:10547000810F17D041F2883AFEF7ECFCA0EB080050
:10548000504508D90320BDE8F0870120BDE8F0872A
:105490000120BDE8F0873068616800F00C00B0EBD7
:1054A000810FE9D1D9F8000000F00700A8420AD91D
:1054B00089F80070D9F8000000F00700A84202D077
:1054C0000120BDE8F087207810F0040F05D0306887
:1054D000E16820F4E05008433060207810F0080FB5
:1054E00006D03068216920F4604040EAC100306095
:1054F00000F042F831680A4AC1F30311515CC84018
:105500000849086008480068FFF77EF80020BDE8F9
:10551000F0870000003C024008380240003802409A
:10552000808E0108080200209802002001480068CF
:10553000704700000802002000B5FFF7F7FF04499C
:105540000968044AC1F38221515CC84000BD0000D3
:1055500008380240908E010800B5FFF7E7FF0449C4
:105560000968044AC1F34231515CC84000BD0000E3
:1055700008380240908E010810B51748006810F0F6
:105580000C01164816D0164B042912D0082911D147
:10559000144C216801F03F02216811F4800F0AD0F9
:1055A0002068C0F38810A0FB03010023FAF752FF24
:1055B00009E0184610BD21680023C1F38811A1FB42
:1055C0000001FAF747FF2168C1F30141491C490076
:1055D000B0FBF1F010BD0000083802400024F400D8
:1055E000001BB700043802402DE9F84F0446002C98
:1055F00012D02078FB4E10F0010FA6F1040563D005
:10560000301D016801F00C0104290CD0006800F085
:105610000C00082803D010E00120BDE8F88F3068A6
:1056200010F4800F09D0286810F4003F4CD0606857
:10563000002849D10120BDE8F88F6068B0F5803FAF
:1056400014D0B0F5A02F16D0286820F48030286040
:10565000286820F480202860606810B3FEF7FAFB09
:105660000746286810F4003F0ED02DE0286840F46B
:1056700080302860F0E7286840F48020286028689F
:1056800040F480302860E7E7FEF7E4FBC01B6428A5
:1056900002D90320BDE8F88F286810F4003FF3D04A
:1056A00012E0FEF7D7FB0746286810F4003F0BD046
:1056B000FEF7D0FBC01B642802D90320BDE8F88F99
:1056C000286810F4003FF3D12078C74F10F0020F84
:1056D0004FF0000957D0C548016811F00C0F14D0E5
:1056E000006800F00C00082803D1306810F4800F27
:1056F0000BD0E06880B301203860FEF7ABFB80463A
:10570000286810F0020F12D01EE0286810F0020F77
:1057100005D0E068012802D00120BDE8F88F286894
:10572000216920F0F80040EAC10028602BE0FEF774
:1057300091FBA0EB0800022802D90320BDE8F88FF6
:10574000286810F0020FF2D02868216920F0F800D4
:1057500040EAC100286016E0FFE7C7F80090FEF7B6
:1057600079FB8046286810F0020F0CD0FEF772FB20
:10577000A0EB0800022802D90320BDE8F88F2868B2
:1057800010F0020FF2D1207810F0080F35D09848B1
:10579000DFF860A26169C1B101210160FEF75AFB27
:1057A0008046DAF8000010F0020F26D1FEF752FB17
:1057B000A0EB0800022802D90320BDE8F88FDAF830
:1057C000000010F0020FF1D017E0C0F80090FEF7D3
:1057D00041FB8046DAF8000010F0020F0DD0FEF712
:1057E00039FBA0EB0800022802D90320BDE8F88F9E
:1057F000DAF8000010F0020FF1D1207810F0040F59
:1058000071D04FF000087C48006810F0805F0AD12A
:105810007948016841F080510160006800F08050D3
:1058200000904FF00108DFF8D4B1DBF8000010F46D
:10583000807F1BD1DBF8000040F48070CBF80000C3
:10584000FEF708FB8246DBF8000010F4807F0DD1E4
:10585000FEF700FBA0EB0A00022802D90320BDE8F6
:10586000F88FDBF8000010F4807FF1D0A068DFF83B
:1058700090B1012818D005281DD0DBF8000020F0D9
:105880000100CBF80000DBF8000020F00400CBF8AA
:105890000000A06840B3FEF7DDFA8246DBF80000A6
:1058A00010F0020F14D03EE0DBF8000040F00100E1
:1058B000CBF80000EDE7DBF8000040F00400CBF887
:1058C0000000DBF8000040F00100CBF80000E0E74A
:1058D000FEF7C0FAA0EB0A0141F28830814204D9F8
:1058E0000320BDE8F88F26E005E0DBF8000010F0AB
:1058F000020FEDD017E0FEF7ADFA8246DBF80000AC
:1059000010F0020F0FD0FEF7A5FAA0EB0A0141F24A
:105910008830814202D90320BDE8F88FDBF800000F
:1059200010F0020FEFD1B8F1010F04D13248016835
:1059300021F080510160A069F0B32C4909684FF053
:10594000FF3801F00C01082966D0022810D0C7F8F2
:105950006090FEF77FFA0446286810F0007F2BD095
:10596000FEF778FA001B022851D90320BDE8F88F12
:10597000C7F86090FEF76EFA8146286810F0007F45
:105980000CD0FEF767FAA0EB0900022802D9032029
:10599000BDE8F88F286810F0007FF2D1216AE06935
:1059A000A26A0843616A08EB5202890141EA024196
:1059B000084394F82C1000E055E040EA01603060A4
:1059C00001203866FEF746FA0446286810F0007F8A
:1059D00049D1FEF73FFA001B022813D90320BDE886
:1059E000F88F0000043802400000474208380240A7
:1059F000800E474274380240403802400070004038
:105A000070380240286810F0007FE2D02BE0286850
:105A100010F0007FA4D126E0012822D03068E2698E
:105A200000F4800191421AD1226A00F03F019142B4
:105A300015D147F6C071626A0140B1EB821F0ED1E9
:105A4000A26A00F4403108EB5202B1EB024F06D1DA
:105A500094F82C1000F07060B0EB016F03D00120BF
:105A6000BDE70120BBE70020B9E770B50446002C74
:105A700003D06079002510B105E0012070BD2571CB
:105A8000204600F00DF8022060712068016841F0A6
:105A90000401016001206071A560002070BD00005C
:105AA00081B00068A0F1A041B1F5C12108D105483D
:105AB000016841F040010160006800F04000009082
:105AC00001B070473438024010B50446002C02D0B3
:105AD000607F10B106E0012010BD00202077204635
